{
  "contractName": "ArtToken",
  "abi": [
    {
      "inputs": [],
      "stateMutability": "nonpayable",
      "type": "constructor"
    },
    {
      "anonymous": false,
      "inputs": [
        {
          "indexed": true,
          "internalType": "address",
          "name": "account",
          "type": "address"
        },
        {
          "indexed": true,
          "internalType": "address",
          "name": "operator",
          "type": "address"
        },
        {
          "indexed": false,
          "internalType": "bool",
          "name": "approved",
          "type": "bool"
        }
      ],
      "name": "ApprovalForAll",
      "type": "event"
    },
    {
      "anonymous": false,
      "inputs": [
        {
          "indexed": true,
          "internalType": "address",
          "name": "operator",
          "type": "address"
        },
        {
          "indexed": true,
          "internalType": "address",
          "name": "from",
          "type": "address"
        },
        {
          "indexed": true,
          "internalType": "address",
          "name": "to",
          "type": "address"
        },
        {
          "indexed": false,
          "internalType": "uint256[]",
          "name": "ids",
          "type": "uint256[]"
        },
        {
          "indexed": false,
          "internalType": "uint256[]",
          "name": "values",
          "type": "uint256[]"
        }
      ],
      "name": "TransferBatch",
      "type": "event"
    },
    {
      "anonymous": false,
      "inputs": [
        {
          "indexed": true,
          "internalType": "address",
          "name": "operator",
          "type": "address"
        },
        {
          "indexed": true,
          "internalType": "address",
          "name": "from",
          "type": "address"
        },
        {
          "indexed": true,
          "internalType": "address",
          "name": "to",
          "type": "address"
        },
        {
          "indexed": false,
          "internalType": "uint256",
          "name": "id",
          "type": "uint256"
        },
        {
          "indexed": false,
          "internalType": "uint256",
          "name": "value",
          "type": "uint256"
        }
      ],
      "name": "TransferSingle",
      "type": "event"
    },
    {
      "anonymous": false,
      "inputs": [
        {
          "indexed": false,
          "internalType": "string",
          "name": "value",
          "type": "string"
        },
        {
          "indexed": true,
          "internalType": "uint256",
          "name": "id",
          "type": "uint256"
        }
      ],
      "name": "URI",
      "type": "event"
    },
    {
      "inputs": [],
      "name": "GOLD",
      "outputs": [
        {
          "internalType": "uint256",
          "name": "",
          "type": "uint256"
        }
      ],
      "stateMutability": "view",
      "type": "function"
    },
    {
      "inputs": [],
      "name": "MAX_MINT",
      "outputs": [
        {
          "internalType": "uint256",
          "name": "",
          "type": "uint256"
        }
      ],
      "stateMutability": "view",
      "type": "function"
    },
    {
      "inputs": [],
      "name": "SHIELD",
      "outputs": [
        {
          "internalType": "uint256",
          "name": "",
          "type": "uint256"
        }
      ],
      "stateMutability": "view",
      "type": "function"
    },
    {
      "inputs": [],
      "name": "SILVER",
      "outputs": [
        {
          "internalType": "uint256",
          "name": "",
          "type": "uint256"
        }
      ],
      "stateMutability": "view",
      "type": "function"
    },
    {
      "inputs": [],
      "name": "SWORD",
      "outputs": [
        {
          "internalType": "uint256",
          "name": "",
          "type": "uint256"
        }
      ],
      "stateMutability": "view",
      "type": "function"
    },
    {
      "inputs": [],
      "name": "THORS_HAMMER",
      "outputs": [
        {
          "internalType": "uint256",
          "name": "",
          "type": "uint256"
        }
      ],
      "stateMutability": "view",
      "type": "function"
    },
    {
      "inputs": [],
      "name": "UNIT_PRICE",
      "outputs": [
        {
          "internalType": "uint256",
          "name": "",
          "type": "uint256"
        }
      ],
      "stateMutability": "view",
      "type": "function"
    },
    {
      "inputs": [
        {
          "internalType": "address",
          "name": "account",
          "type": "address"
        },
        {
          "internalType": "uint256",
          "name": "id",
          "type": "uint256"
        }
      ],
      "name": "balanceOf",
      "outputs": [
        {
          "internalType": "uint256",
          "name": "",
          "type": "uint256"
        }
      ],
      "stateMutability": "view",
      "type": "function"
    },
    {
      "inputs": [
        {
          "internalType": "address[]",
          "name": "accounts",
          "type": "address[]"
        },
        {
          "internalType": "uint256[]",
          "name": "ids",
          "type": "uint256[]"
        }
      ],
      "name": "balanceOfBatch",
      "outputs": [
        {
          "internalType": "uint256[]",
          "name": "",
          "type": "uint256[]"
        }
      ],
      "stateMutability": "view",
      "type": "function"
    },
    {
      "inputs": [
        {
          "internalType": "address",
          "name": "account",
          "type": "address"
        },
        {
          "internalType": "address",
          "name": "operator",
          "type": "address"
        }
      ],
      "name": "isApprovedForAll",
      "outputs": [
        {
          "internalType": "bool",
          "name": "",
          "type": "bool"
        }
      ],
      "stateMutability": "view",
      "type": "function"
    },
    {
      "inputs": [],
      "name": "name",
      "outputs": [
        {
          "internalType": "string",
          "name": "",
          "type": "string"
        }
      ],
      "stateMutability": "view",
      "type": "function"
    },
    {
      "inputs": [],
      "name": "owner",
      "outputs": [
        {
          "internalType": "address",
          "name": "",
          "type": "address"
        }
      ],
      "stateMutability": "view",
      "type": "function"
    },
    {
      "inputs": [
        {
          "internalType": "uint256",
          "name": "",
          "type": "uint256"
        }
      ],
      "name": "paintingsCount",
      "outputs": [
        {
          "internalType": "uint256",
          "name": "",
          "type": "uint256"
        }
      ],
      "stateMutability": "view",
      "type": "function"
    },
    {
      "inputs": [
        {
          "internalType": "address",
          "name": "from",
          "type": "address"
        },
        {
          "internalType": "address",
          "name": "to",
          "type": "address"
        },
        {
          "internalType": "uint256[]",
          "name": "ids",
          "type": "uint256[]"
        },
        {
          "internalType": "uint256[]",
          "name": "amounts",
          "type": "uint256[]"
        },
        {
          "internalType": "bytes",
          "name": "data",
          "type": "bytes"
        }
      ],
      "name": "safeBatchTransferFrom",
      "outputs": [],
      "stateMutability": "nonpayable",
      "type": "function"
    },
    {
      "inputs": [
        {
          "internalType": "address",
          "name": "from",
          "type": "address"
        },
        {
          "internalType": "address",
          "name": "to",
          "type": "address"
        },
        {
          "internalType": "uint256",
          "name": "id",
          "type": "uint256"
        },
        {
          "internalType": "uint256",
          "name": "amount",
          "type": "uint256"
        },
        {
          "internalType": "bytes",
          "name": "data",
          "type": "bytes"
        }
      ],
      "name": "safeTransferFrom",
      "outputs": [],
      "stateMutability": "nonpayable",
      "type": "function"
    },
    {
      "inputs": [
        {
          "internalType": "address",
          "name": "operator",
          "type": "address"
        },
        {
          "internalType": "bool",
          "name": "approved",
          "type": "bool"
        }
      ],
      "name": "setApprovalForAll",
      "outputs": [],
      "stateMutability": "nonpayable",
      "type": "function"
    },
    {
      "inputs": [
        {
          "internalType": "bytes4",
          "name": "interfaceId",
          "type": "bytes4"
        }
      ],
      "name": "supportsInterface",
      "outputs": [
        {
          "internalType": "bool",
          "name": "",
          "type": "bool"
        }
      ],
      "stateMutability": "view",
      "type": "function"
    },
    {
      "inputs": [],
      "name": "symbol",
      "outputs": [
        {
          "internalType": "string",
          "name": "",
          "type": "string"
        }
      ],
      "stateMutability": "view",
      "type": "function"
    },
    {
      "inputs": [
        {
          "internalType": "uint256",
          "name": "",
          "type": "uint256"
        }
      ],
      "name": "tokenUriMapping",
      "outputs": [
        {
          "internalType": "string",
          "name": "",
          "type": "string"
        }
      ],
      "stateMutability": "view",
      "type": "function"
    },
    {
      "inputs": [
        {
          "internalType": "uint256",
          "name": "tokenId",
          "type": "uint256"
        },
        {
          "internalType": "string",
          "name": "newTokenUri",
          "type": "string"
        }
      ],
      "name": "setUri",
      "outputs": [],
      "stateMutability": "nonpayable",
      "type": "function"
    },
    {
      "inputs": [
        {
          "internalType": "uint256",
          "name": "tokenId",
          "type": "uint256"
        }
      ],
      "name": "uri",
      "outputs": [
        {
          "internalType": "string",
          "name": "",
          "type": "string"
        }
      ],
      "stateMutability": "view",
      "type": "function"
    },
    {
      "inputs": [
        {
          "internalType": "uint256",
          "name": "pictureId",
          "type": "uint256"
        }
      ],
      "name": "mintArtToken",
      "outputs": [],
      "stateMutability": "payable",
      "type": "function"
    }
  ],
  "bytecode": "0x60806040523480156200001157600080fd5b506040518060200160405280600081525062000033816200007b60201b60201c565b5033600460006101000a81548173ffffffffffffffffffffffffffffffffffffffff021916908373ffffffffffffffffffffffffffffffffffffffff160217905550620001ac565b80600290805190602001906200009392919062000097565b5050565b828054620000a59062000147565b90600052602060002090601f016020900481019282620000c9576000855562000115565b82601f10620000e457805160ff191683800117855562000115565b8280016001018555821562000115579182015b8281111562000114578251825591602001919060010190620000f7565b5b50905062000124919062000128565b5090565b5b808211156200014357600081600090555060010162000129565b5090565b600060028204905060018216806200016057607f821691505b602082108114156200017757620001766200017d565b5b50919050565b7f4e487b7100000000000000000000000000000000000000000000000000000000600052602260045260246000fd5b61350b80620001bc6000396000f3fe6080604052600436106101345760003560e01c80638da5cb5b116100ab578063e3e55f081161006f578063e3e55f081461043d578063e985e9c514610468578063eafe4f30146104a5578063f0292a03146104c1578063f242432a146104ec578063f46f830a1461051557610134565b80638da5cb5b1461036857806395d89b4114610393578063a22cb465146103be578063afa40bbd146103e7578063d562e2041461041257610134565b80632eb2c2d6116100fd5780632eb2c2d6146102465780633e4bee381461026f5780634e1273f41461029a57806351a5c169146102d75780635b2725ed14610314578063782f08ae1461033f57610134565b8062fdd58e1461013957806301ffc9a71461017657806306fdde03146101b35780630e89341c146101de57806313dc989f1461021b575b600080fd5b34801561014557600080fd5b50610160600480360381019061015b91906122a3565b610552565b60405161016d9190612ae1565b60405180910390f35b34801561018257600080fd5b5061019d6004803603810190610198919061234b565b61061b565b6040516101aa91906128a4565b60405180910390f35b3480156101bf57600080fd5b506101c86106fd565b6040516101d591906128bf565b60405180910390f35b3480156101ea57600080fd5b506102056004803603810190610200919061239d565b61078b565b60405161021291906128bf565b60405180910390f35b34801561022757600080fd5b50610230610830565b60405161023d9190612ae1565b60405180910390f35b34801561025257600080fd5b5061026d60048036038101906102689190612119565b610835565b005b34801561027b57600080fd5b506102846108d6565b6040516102919190612ae1565b60405180910390f35b3480156102a657600080fd5b506102c160048036038101906102bc91906122df565b6108db565b6040516102ce919061284b565b60405180910390f35b3480156102e357600080fd5b506102fe60048036038101906102f9919061239d565b610a8c565b60405161030b9190612ae1565b60405180910390f35b34801561032057600080fd5b50610329610aa4565b6040516103369190612ae1565b60405180910390f35b34801561034b57600080fd5b50610366600480360381019061036191906123c6565b610aa9565b005b34801561037457600080fd5b5061037d610bc7565b60405161038a919061276e565b60405180910390f35b34801561039f57600080fd5b506103a8610bed565b6040516103b591906128bf565b60405180910390f35b3480156103ca57600080fd5b506103e560048036038101906103e09190612267565b610c7b565b005b3480156103f357600080fd5b506103fc610dfc565b6040516104099190612ae1565b60405180910390f35b34801561041e57600080fd5b50610427610e03565b6040516104349190612ae1565b60405180910390f35b34801561044957600080fd5b50610452610e08565b60405161045f9190612ae1565b60405180910390f35b34801561047457600080fd5b5061048f600480360381019061048a91906120dd565b610e0d565b60405161049c91906128a4565b60405180910390f35b6104bf60048036038101906104ba919061239d565b610ea1565b005b3480156104cd57600080fd5b506104d6610ff6565b6040516104e39190612ae1565b60405180910390f35b3480156104f857600080fd5b50610513600480360381019061050e91906121d8565b610ffb565b005b34801561052157600080fd5b5061053c6004803603810190610537919061239d565b61109c565b60405161054991906128bf565b60405180910390f35b60008073ffffffffffffffffffffffffffffffffffffffff168373ffffffffffffffffffffffffffffffffffffffff1614156105c3576040517f08c379a00000000000000000000000000000000000000000000000000000000081526004016105ba90612941565b60405180910390fd5b60008083815260200190815260200160002060008473ffffffffffffffffffffffffffffffffffffffff1673ffffffffffffffffffffffffffffffffffffffff16815260200190815260200160002054905092915050565b60007fd9b67a26000000000000000000000000000000000000000000000000000000007bffffffffffffffffffffffffffffffffffffffffffffffffffffffff1916827bffffffffffffffffffffffffffffffffffffffffffffffffffffffff191614806106e657507f0e89341c000000000000000000000000000000000000000000000000000000007bffffffffffffffffffffffffffffffffffffffffffffffffffffffff1916827bffffffffffffffffffffffffffffffffffffffffffffffffffffffff1916145b806106f657506106f58261113c565b5b9050919050565b6005805461070a90612db2565b80601f016020809104026020016040519081016040528092919081815260200182805461073690612db2565b80156107835780601f1061075857610100808354040283529160200191610783565b820191906000526020600020905b81548152906001019060200180831161076657829003601f168201915b505050505081565b60606008600083815260200190815260200160002080546107ab90612db2565b80601f01602080910402602001604051908101604052809291908181526020018280546107d790612db2565b80156108245780601f106107f957610100808354040283529160200191610824565b820191906000526020600020905b81548152906001019060200180831161080757829003601f168201915b50505050509050919050565b600381565b61083d6111a6565b73ffffffffffffffffffffffffffffffffffffffff168573ffffffffffffffffffffffffffffffffffffffff16148061088357506108828561087d6111a6565b610e0d565b5b6108c2576040517f08c379a00000000000000000000000000000000000000000000000000000000081526004016108b9906129c1565b60405180910390fd5b6108cf85858585856111ae565b5050505050565b600081565b60608151835114610921576040517f08c379a000000000000000000000000000000000000000000000000000000000815260040161091890612a61565b60405180910390fd5b6000835167ffffffffffffffff811115610964577f4e487b7100000000000000000000000000000000000000000000000000000000600052604160045260246000fd5b6040519080825280602002602001820160405280156109925781602001602082028036833780820191505090505b50905060005b8451811015610a8157610a2b8582815181106109dd577f4e487b7100000000000000000000000000000000000000000000000000000000600052603260045260246000fd5b6020026020010151858381518110610a1e577f4e487b7100000000000000000000000000000000000000000000000000000000600052603260045260246000fd5b6020026020010151610552565b828281518110610a64577f4e487b7100000000000000000000000000000000000000000000000000000000600052603260045260246000fd5b60200260200101818152505080610a7a90612e15565b9050610998565b508091505092915050565b60096020528060005260406000206000915090505481565b600481565b600460009054906101000a900473ffffffffffffffffffffffffffffffffffffffff1673ffffffffffffffffffffffffffffffffffffffff163373ffffffffffffffffffffffffffffffffffffffff1614610b39576040517f08c379a0000000000000000000000000000000000000000000000000000000008152600401610b3090612ac1565b60405180910390fd5b6000600860008481526020019081526020016000208054610b5990612db2565b905014610b9b576040517f08c379a0000000000000000000000000000000000000000000000000000000008152600401610b9290612961565b60405180910390fd5b80600860008481526020019081526020016000209080519060200190610bc2929190611dd5565b505050565b600460009054906101000a900473ffffffffffffffffffffffffffffffffffffffff1681565b60068054610bfa90612db2565b80601f0160208091040260200160405190810160405280929190818152602001828054610c2690612db2565b8015610c735780601f10610c4857610100808354040283529160200191610c73565b820191906000526020600020905b815481529060010190602001808311610c5657829003601f168201915b505050505081565b8173ffffffffffffffffffffffffffffffffffffffff16610c9a6111a6565b73ffffffffffffffffffffffffffffffffffffffff161415610cf1576040517f08c379a0000000000000000000000000000000000000000000000000000000008152600401610ce890612a41565b60405180910390fd5b8060016000610cfe6111a6565b73ffffffffffffffffffffffffffffffffffffffff1673ffffffffffffffffffffffffffffffffffffffff16815260200190815260200160002060008473ffffffffffffffffffffffffffffffffffffffff1673ffffffffffffffffffffffffffffffffffffffff16815260200190815260200160002060006101000a81548160ff0219169083151502179055508173ffffffffffffffffffffffffffffffffffffffff16610dab6111a6565b73ffffffffffffffffffffffffffffffffffffffff167f17307eab39ab6107e8899845ad3d59bd9653f200f220920489ca2b5937696c3183604051610df091906128a4565b60405180910390a35050565b620f424081565b600281565b600181565b6000600160008473ffffffffffffffffffffffffffffffffffffffff1673ffffffffffffffffffffffffffffffffffffffff16815260200190815260200160002060008373ffffffffffffffffffffffffffffffffffffffff1673ffffffffffffffffffffffffffffffffffffffff16815260200190815260200160002060009054906101000a900460ff16905092915050565b60003390506000349050620f4240811015610ef1576040517f08c379a0000000000000000000000000000000000000000000000000000000008152600401610ee890612a01565b60405180910390fd5b6000620f424082610f029190612e5e565b14610f42576040517f08c379a0000000000000000000000000000000000000000000000000000000008152600401610f3990612a21565b60405180910390fd5b6000620f424082610f539190612ccb565b90506000816009600087815260200190815260200160002054610f769190612c75565b90506064811115610fbc576040517f08c379a0000000000000000000000000000000000000000000000000000000008152600401610fb390612901565b60405180910390fd5b806009600087815260200190815260200160002081905550610fef8486846040518060200160405280600081525061150e565b5050505050565b606481565b6110036111a6565b73ffffffffffffffffffffffffffffffffffffffff168573ffffffffffffffffffffffffffffffffffffffff1614806110495750611048856110436111a6565b610e0d565b5b611088576040517f08c379a000000000000000000000000000000000000000000000000000000000815260040161107f90612981565b60405180910390fd5b61109585858585856116a4565b5050505050565b600860205280600052604060002060009150905080546110bb90612db2565b80601f01602080910402602001604051908101604052809291908181526020018280546110e790612db2565b80156111345780601f1061110957610100808354040283529160200191611134565b820191906000526020600020905b81548152906001019060200180831161111757829003601f168201915b505050505081565b60007f01ffc9a7000000000000000000000000000000000000000000000000000000007bffffffffffffffffffffffffffffffffffffffffffffffffffffffff1916827bffffffffffffffffffffffffffffffffffffffffffffffffffffffff1916149050919050565b600033905090565b81518351146111f2576040517f08c379a00000000000000000000000000000000000000000000000000000000081526004016111e990612a81565b60405180910390fd5b600073ffffffffffffffffffffffffffffffffffffffff168473ffffffffffffffffffffffffffffffffffffffff161415611262576040517f08c379a0000000000000000000000000000000000000000000000000000000008152600401611259906129a1565b60405180910390fd5b600061126c6111a6565b905061127c818787878787611926565b60005b84518110156114795760008582815181106112c3577f4e487b7100000000000000000000000000000000000000000000000000000000600052603260045260246000fd5b602002602001015190506000858381518110611308577f4e487b7100000000000000000000000000000000000000000000000000000000600052603260045260246000fd5b60200260200101519050600080600084815260200190815260200160002060008b73ffffffffffffffffffffffffffffffffffffffff1673ffffffffffffffffffffffffffffffffffffffff168152602001908152602001600020549050818110156113a9576040517f08c379a00000000000000000000000000000000000000000000000000000000081526004016113a0906129e1565b60405180910390fd5b81810360008085815260200190815260200160002060008c73ffffffffffffffffffffffffffffffffffffffff1673ffffffffffffffffffffffffffffffffffffffff168152602001908152602001600020819055508160008085815260200190815260200160002060008b73ffffffffffffffffffffffffffffffffffffffff1673ffffffffffffffffffffffffffffffffffffffff168152602001908152602001600020600082825461145e9190612c75565b925050819055505050508061147290612e15565b905061127f565b508473ffffffffffffffffffffffffffffffffffffffff168673ffffffffffffffffffffffffffffffffffffffff168273ffffffffffffffffffffffffffffffffffffffff167f4a39dc06d4c0dbc64b70af90fd698a233a518aa5d07e595d983b8c0526c8f7fb87876040516114f092919061286d565b60405180910390a461150681878787878761192e565b505050505050565b600073ffffffffffffffffffffffffffffffffffffffff168473ffffffffffffffffffffffffffffffffffffffff16141561157e576040517f08c379a000000000000000000000000000000000000000000000000000000000815260040161157590612aa1565b60405180910390fd5b60006115886111a6565b90506115a98160008761159a88611b15565b6115a388611b15565b87611926565b8260008086815260200190815260200160002060008773ffffffffffffffffffffffffffffffffffffffff1673ffffffffffffffffffffffffffffffffffffffff16815260200190815260200160002060008282546116089190612c75565b925050819055508473ffffffffffffffffffffffffffffffffffffffff16600073ffffffffffffffffffffffffffffffffffffffff168273ffffffffffffffffffffffffffffffffffffffff167fc3d58168c5ae7397731d063d5bbf3d657854427343f4c083240f7aacaa2d0f628787604051611686929190612afc565b60405180910390a461169d81600087878787611bdb565b5050505050565b600073ffffffffffffffffffffffffffffffffffffffff168473ffffffffffffffffffffffffffffffffffffffff161415611714576040517f08c379a000000000000000000000000000000000000000000000000000000000815260040161170b906129a1565b60405180910390fd5b600061171e6111a6565b905061173e81878761172f88611b15565b61173888611b15565b87611926565b600080600086815260200190815260200160002060008873ffffffffffffffffffffffffffffffffffffffff1673ffffffffffffffffffffffffffffffffffffffff168152602001908152602001600020549050838110156117d5576040517f08c379a00000000000000000000000000000000000000000000000000000000081526004016117cc906129e1565b60405180910390fd5b83810360008087815260200190815260200160002060008973ffffffffffffffffffffffffffffffffffffffff1673ffffffffffffffffffffffffffffffffffffffff168152602001908152602001600020819055508360008087815260200190815260200160002060008873ffffffffffffffffffffffffffffffffffffffff1673ffffffffffffffffffffffffffffffffffffffff168152602001908152602001600020600082825461188a9190612c75565b925050819055508573ffffffffffffffffffffffffffffffffffffffff168773ffffffffffffffffffffffffffffffffffffffff168373ffffffffffffffffffffffffffffffffffffffff167fc3d58168c5ae7397731d063d5bbf3d657854427343f4c083240f7aacaa2d0f628888604051611907929190612afc565b60405180910390a461191d828888888888611bdb565b50505050505050565b505050505050565b61194d8473ffffffffffffffffffffffffffffffffffffffff16611dc2565b15611b0d578373ffffffffffffffffffffffffffffffffffffffff1663bc197c8187878686866040518663ffffffff1660e01b8152600401611993959493929190612789565b602060405180830381600087803b1580156119ad57600080fd5b505af19250505080156119de57506040513d601f19601f820116820180604052508101906119db9190612374565b60015b611a84576119ea612f4b565b806308c379a01415611a4757506119ff6133e3565b80611a0a5750611a49565b806040517f08c379a0000000000000000000000000000000000000000000000000000000008152600401611a3e91906128bf565b60405180910390fd5b505b6040517f08c379a0000000000000000000000000000000000000000000000000000000008152600401611a7b906128e1565b60405180910390fd5b63bc197c8160e01b7bffffffffffffffffffffffffffffffffffffffffffffffffffffffff1916817bffffffffffffffffffffffffffffffffffffffffffffffffffffffff191614611b0b576040517f08c379a0000000000000000000000000000000000000000000000000000000008152600401611b0290612921565b60405180910390fd5b505b505050505050565b60606000600167ffffffffffffffff811115611b5a577f4e487b7100000000000000000000000000000000000000000000000000000000600052604160045260246000fd5b604051908082528060200260200182016040528015611b885781602001602082028036833780820191505090505b5090508281600081518110611bc6577f4e487b7100000000000000000000000000000000000000000000000000000000600052603260045260246000fd5b60200260200101818152505080915050919050565b611bfa8473ffffffffffffffffffffffffffffffffffffffff16611dc2565b15611dba578373ffffffffffffffffffffffffffffffffffffffff1663f23a6e6187878686866040518663ffffffff1660e01b8152600401611c409594939291906127f1565b602060405180830381600087803b158015611c5a57600080fd5b505af1925050508015611c8b57506040513d601f19601f82011682018060405250810190611c889190612374565b60015b611d3157611c97612f4b565b806308c379a01415611cf45750611cac6133e3565b80611cb75750611cf6565b806040517f08c379a0000000000000000000000000000000000000000000000000000000008152600401611ceb91906128bf565b60405180910390fd5b505b6040517f08c379a0000000000000000000000000000000000000000000000000000000008152600401611d28906128e1565b60405180910390fd5b63f23a6e6160e01b7bffffffffffffffffffffffffffffffffffffffffffffffffffffffff1916817bffffffffffffffffffffffffffffffffffffffffffffffffffffffff191614611db8576040517f08c379a0000000000000000000000000000000000000000000000000000000008152600401611daf90612921565b60405180910390fd5b505b505050505050565b600080823b905060008111915050919050565b828054611de190612db2565b90600052602060002090601f016020900481019282611e035760008555611e4a565b82601f10611e1c57805160ff1916838001178555611e4a565b82800160010185558215611e4a579182015b82811115611e49578251825591602001919060010190611e2e565b5b509050611e579190611e5b565b5090565b5b80821115611e74576000816000905550600101611e5c565b5090565b6000611e8b611e8684612b4a565b612b25565b90508083825260208201905082856020860282011115611eaa57600080fd5b60005b85811015611eda5781611ec08882611fcc565b845260208401935060208301925050600181019050611ead565b5050509392505050565b6000611ef7611ef284612b76565b612b25565b90508083825260208201905082856020860282011115611f1657600080fd5b60005b85811015611f465781611f2c88826120c8565b845260208401935060208301925050600181019050611f19565b5050509392505050565b6000611f63611f5e84612ba2565b612b25565b905082815260208101848484011115611f7b57600080fd5b611f86848285612d70565b509392505050565b6000611fa1611f9c84612bd3565b612b25565b905082815260208101848484011115611fb957600080fd5b611fc4848285612d70565b509392505050565b600081359050611fdb81613479565b92915050565b600082601f830112611ff257600080fd5b8135612002848260208601611e78565b91505092915050565b600082601f83011261201c57600080fd5b813561202c848260208601611ee4565b91505092915050565b60008135905061204481613490565b92915050565b600081359050612059816134a7565b92915050565b60008151905061206e816134a7565b92915050565b600082601f83011261208557600080fd5b8135612095848260208601611f50565b91505092915050565b600082601f8301126120af57600080fd5b81356120bf848260208601611f8e565b91505092915050565b6000813590506120d7816134be565b92915050565b600080604083850312156120f057600080fd5b60006120fe85828601611fcc565b925050602061210f85828601611fcc565b9150509250929050565b600080600080600060a0868803121561213157600080fd5b600061213f88828901611fcc565b955050602061215088828901611fcc565b945050604086013567ffffffffffffffff81111561216d57600080fd5b6121798882890161200b565b935050606086013567ffffffffffffffff81111561219657600080fd5b6121a28882890161200b565b925050608086013567ffffffffffffffff8111156121bf57600080fd5b6121cb88828901612074565b9150509295509295909350565b600080600080600060a086880312156121f057600080fd5b60006121fe88828901611fcc565b955050602061220f88828901611fcc565b9450506040612220888289016120c8565b9350506060612231888289016120c8565b925050608086013567ffffffffffffffff81111561224e57600080fd5b61225a88828901612074565b9150509295509295909350565b6000806040838503121561227a57600080fd5b600061228885828601611fcc565b925050602061229985828601612035565b9150509250929050565b600080604083850312156122b657600080fd5b60006122c485828601611fcc565b92505060206122d5858286016120c8565b9150509250929050565b600080604083850312156122f257600080fd5b600083013567ffffffffffffffff81111561230c57600080fd5b61231885828601611fe1565b925050602083013567ffffffffffffffff81111561233557600080fd5b6123418582860161200b565b9150509250929050565b60006020828403121561235d57600080fd5b600061236b8482850161204a565b91505092915050565b60006020828403121561238657600080fd5b60006123948482850161205f565b91505092915050565b6000602082840312156123af57600080fd5b60006123bd848285016120c8565b91505092915050565b600080604083850312156123d957600080fd5b60006123e7858286016120c8565b925050602083013567ffffffffffffffff81111561240457600080fd5b6124108582860161209e565b9150509250929050565b60006124268383612750565b60208301905092915050565b61243b81612cfc565b82525050565b600061244c82612c14565b6124568185612c42565b935061246183612c04565b8060005b83811015612492578151612479888261241a565b975061248483612c35565b925050600181019050612465565b5085935050505092915050565b6124a881612d0e565b82525050565b60006124b982612c1f565b6124c38185612c53565b93506124d3818560208601612d7f565b6124dc81612f6d565b840191505092915050565b60006124f282612c2a565b6124fc8185612c64565b935061250c818560208601612d7f565b61251581612f6d565b840191505092915050565b600061252d603483612c64565b915061253882612f8b565b604082019050919050565b6000612550602283612c64565b915061255b82612fda565b604082019050919050565b6000612573602883612c64565b915061257e82613029565b604082019050919050565b6000612596602b83612c64565b91506125a182613078565b604082019050919050565b60006125b9601d83612c64565b91506125c4826130c7565b602082019050919050565b60006125dc602983612c64565b91506125e7826130f0565b604082019050919050565b60006125ff602583612c64565b915061260a8261313f565b604082019050919050565b6000612622603283612c64565b915061262d8261318e565b604082019050919050565b6000612645602a83612c64565b9150612650826131dd565b604082019050919050565b6000612668601383612c64565b91506126738261322c565b602082019050919050565b600061268b601b83612c64565b915061269682613255565b602082019050919050565b60006126ae602983612c64565b91506126b98261327e565b604082019050919050565b60006126d1602983612c64565b91506126dc826132cd565b604082019050919050565b60006126f4602883612c64565b91506126ff8261331c565b604082019050919050565b6000612717602183612c64565b91506127228261336b565b604082019050919050565b600061273a601183612c64565b9150612745826133ba565b602082019050919050565b61275981612d66565b82525050565b61276881612d66565b82525050565b60006020820190506127836000830184612432565b92915050565b600060a08201905061279e6000830188612432565b6127ab6020830187612432565b81810360408301526127bd8186612441565b905081810360608301526127d18185612441565b905081810360808301526127e581846124ae565b90509695505050505050565b600060a0820190506128066000830188612432565b6128136020830187612432565b612820604083018661275f565b61282d606083018561275f565b818103608083015261283f81846124ae565b90509695505050505050565b600060208201905081810360008301526128658184612441565b905092915050565b600060408201905081810360008301526128878185612441565b9050818103602083015261289b8184612441565b90509392505050565b60006020820190506128b9600083018461249f565b92915050565b600060208201905081810360008301526128d981846124e7565b905092915050565b600060208201905081810360008301526128fa81612520565b9050919050565b6000602082019050818103600083015261291a81612543565b9050919050565b6000602082019050818103600083015261293a81612566565b9050919050565b6000602082019050818103600083015261295a81612589565b9050919050565b6000602082019050818103600083015261297a816125ac565b9050919050565b6000602082019050818103600083015261299a816125cf565b9050919050565b600060208201905081810360008301526129ba816125f2565b9050919050565b600060208201905081810360008301526129da81612615565b9050919050565b600060208201905081810360008301526129fa81612638565b9050919050565b60006020820190508181036000830152612a1a8161265b565b9050919050565b60006020820190508181036000830152612a3a8161267e565b9050919050565b60006020820190508181036000830152612a5a816126a1565b9050919050565b60006020820190508181036000830152612a7a816126c4565b9050919050565b60006020820190508181036000830152612a9a816126e7565b9050919050565b60006020820190508181036000830152612aba8161270a565b9050919050565b60006020820190508181036000830152612ada8161272d565b9050919050565b6000602082019050612af6600083018461275f565b92915050565b6000604082019050612b11600083018561275f565b612b1e602083018461275f565b9392505050565b6000612b2f612b40565b9050612b3b8282612de4565b919050565b6000604051905090565b600067ffffffffffffffff821115612b6557612b64612f1c565b5b602082029050602081019050919050565b600067ffffffffffffffff821115612b9157612b90612f1c565b5b602082029050602081019050919050565b600067ffffffffffffffff821115612bbd57612bbc612f1c565b5b612bc682612f6d565b9050602081019050919050565b600067ffffffffffffffff821115612bee57612bed612f1c565b5b612bf782612f6d565b9050602081019050919050565b6000819050602082019050919050565b600081519050919050565b600081519050919050565b600081519050919050565b6000602082019050919050565b600082825260208201905092915050565b600082825260208201905092915050565b600082825260208201905092915050565b6000612c8082612d66565b9150612c8b83612d66565b9250827fffffffffffffffffffffffffffffffffffffffffffffffffffffffffffffffff03821115612cc057612cbf612e8f565b5b828201905092915050565b6000612cd682612d66565b9150612ce183612d66565b925082612cf157612cf0612ebe565b5b828204905092915050565b6000612d0782612d46565b9050919050565b60008115159050919050565b60007fffffffff0000000000000000000000000000000000000000000000000000000082169050919050565b600073ffffffffffffffffffffffffffffffffffffffff82169050919050565b6000819050919050565b82818337600083830152505050565b60005b83811015612d9d578082015181840152602081019050612d82565b83811115612dac576000848401525b50505050565b60006002820490506001821680612dca57607f821691505b60208210811415612dde57612ddd612eed565b5b50919050565b612ded82612f6d565b810181811067ffffffffffffffff82111715612e0c57612e0b612f1c565b5b80604052505050565b6000612e2082612d66565b91507fffffffffffffffffffffffffffffffffffffffffffffffffffffffffffffffff821415612e5357612e52612e8f565b5b600182019050919050565b6000612e6982612d66565b9150612e7483612d66565b925082612e8457612e83612ebe565b5b828206905092915050565b7f4e487b7100000000000000000000000000000000000000000000000000000000600052601160045260246000fd5b7f4e487b7100000000000000000000000000000000000000000000000000000000600052601260045260246000fd5b7f4e487b7100000000000000000000000000000000000000000000000000000000600052602260045260246000fd5b7f4e487b7100000000000000000000000000000000000000000000000000000000600052604160045260246000fd5b600060033d1115612f6a5760046000803e612f67600051612f7e565b90505b90565b6000601f19601f8301169050919050565b60008160e01c9050919050565b7f455243313135353a207472616e7366657220746f206e6f6e204552433131353560008201527f526563656976657220696d706c656d656e746572000000000000000000000000602082015250565b7f54686973207061696e74696e67206861732072656163686564206d6178206d6960008201527f6e74000000000000000000000000000000000000000000000000000000000000602082015250565b7f455243313135353a204552433131353552656365697665722072656a6563746560008201527f6420746f6b656e73000000000000000000000000000000000000000000000000602082015250565b7f455243313135353a2062616c616e636520717565727920666f7220746865207a60008201527f65726f2061646472657373000000000000000000000000000000000000000000602082015250565b7f54686973207572692068617320616c7265616479206265656e20736574000000600082015250565b7f455243313135353a2063616c6c6572206973206e6f74206f776e6572206e6f7260008201527f20617070726f7665640000000000000000000000000000000000000000000000602082015250565b7f455243313135353a207472616e7366657220746f20746865207a65726f20616460008201527f6472657373000000000000000000000000000000000000000000000000000000602082015250565b7f455243313135353a207472616e736665722063616c6c6572206973206e6f742060008201527f6f776e6572206e6f7220617070726f7665640000000000000000000000000000602082015250565b7f455243313135353a20696e73756666696369656e742062616c616e636520666f60008201527f72207472616e7366657200000000000000000000000000000000000000000000602082015250565b7f4e6f7420656e6f756768206574682073656e7400000000000000000000000000600082015250565b7f4e6f7420636f72726563742065746820616d6f756e742073656e740000000000600082015250565b7f455243313135353a2073657474696e6720617070726f76616c2073746174757360008201527f20666f722073656c660000000000000000000000000000000000000000000000602082015250565b7f455243313135353a206163636f756e747320616e6420696473206c656e67746860008201527f206d69736d617463680000000000000000000000000000000000000000000000602082015250565b7f455243313135353a2069647320616e6420616d6f756e7473206c656e6774682060008201527f6d69736d61746368000000000000000000000000000000000000000000000000602082015250565b7f455243313135353a206d696e7420746f20746865207a65726f2061646472657360008201527f7300000000000000000000000000000000000000000000000000000000000000602082015250565b7f596f7520617265206e6f74206f776e6572000000000000000000000000000000600082015250565b600060443d10156133f357613476565b6133fb612b40565b60043d036004823e80513d602482011167ffffffffffffffff82111715613423575050613476565b808201805167ffffffffffffffff8111156134415750505050613476565b80602083010160043d03850181111561345e575050505050613476565b61346d82602001850186612de4565b82955050505050505b90565b61348281612cfc565b811461348d57600080fd5b50565b61349981612d0e565b81146134a457600080fd5b50565b6134b081612d1a565b81146134bb57600080fd5b50565b6134c781612d66565b81146134d257600080fd5b5056fea2646970667358221220bb1326072e007c1c1eae2e92da3122eeb73d18b9e9320179770de43a7bd5c38664736f6c63430008010033",
  "immutableReferences": {},
  "source": "pragma solidity ^0.8.0;\r\n\r\nimport \"@openzeppelin/contracts/token/ERC1155/ERC1155.sol\";\r\nimport \"@openzeppelin/contracts/utils/Counters.sol\";\r\n\r\ncontract ArtToken is ERC1155 {\r\n    using Counters for Counters.Counter;\r\n    Counters.Counter private idCounter;\r\n    address public owner;\r\n    string public name;\r\n    string public symbol;\r\n    string private _uri;\r\n    mapping(uint256 => string) public tokenUriMapping;\r\n    mapping(uint256 => uint256) public paintingsCount;\r\n\r\n    uint256 public constant GOLD = 0;\r\n    uint256 public constant SILVER = 1;\r\n    uint256 public constant THORS_HAMMER = 2;\r\n    uint256 public constant SWORD = 3;\r\n    uint256 public constant SHIELD = 4;\r\n\r\n    uint256 public constant UNIT_PRICE = 1000000;\r\n    uint256 public constant MAX_MINT = 100;\r\n\r\n    modifier onlyOwner(){\r\n        require(msg.sender == owner, \"You are not owner\");\r\n        _;\r\n    }\r\n\r\n    constructor() ERC1155(\"\") {\r\n        owner = msg.sender;\r\n    }\r\n\r\n    function setUri(uint256 tokenId, string memory newTokenUri) public onlyOwner {\r\n        require(bytes(tokenUriMapping[tokenId]).length == 0, \"This uri has already been set\");\r\n        tokenUriMapping[tokenId] = newTokenUri;\r\n    }\r\n\r\n    function uri(uint256 tokenId) public view override returns (string memory) {\r\n        return tokenUriMapping[tokenId];\r\n    }\r\n\r\n    \r\n\r\n    function mintArtToken(uint256 pictureId) payable public\r\n    {\r\n        address sender = msg.sender;\r\n        uint256 payment = msg.value;\r\n        require(payment >= UNIT_PRICE, \"Not enough eth sent\");\r\n        require(payment % UNIT_PRICE==0, \"Not correct eth amount sent\");\r\n        uint256 mintAmount = payment / UNIT_PRICE;\r\n        uint256 newPaintingCount = paintingsCount[pictureId] + mintAmount;\r\n        require(newPaintingCount <= MAX_MINT, \"This painting has reached max mint\");\r\n        paintingsCount[pictureId] = newPaintingCount;\r\n        _mint(\r\n            sender,\r\n            pictureId,\r\n            mintAmount,\r\n            \"\"\r\n        );\r\n    }\r\n\r\n\r\n}",
  "sourcePath": "C:\\Users\\Caleb\\Desktop\\hackthon\\arts\\contracts\\ArtToken.sol",
  "compiler": {
    "name": "solc",
    "version": "0.8.1+commit.df193b15.Emscripten.clang"
  },
  "schemaVersion": "3.4.2",
  "updatedAt": "2021-11-05T03:13:55.916Z",
  "devdoc": {
    "kind": "dev",
    "methods": {
      "balanceOf(address,uint256)": {
        "details": "See {IERC1155-balanceOf}. Requirements: - `account` cannot be the zero address."
      },
      "balanceOfBatch(address[],uint256[])": {
        "details": "See {IERC1155-balanceOfBatch}. Requirements: - `accounts` and `ids` must have the same length."
      },
      "isApprovedForAll(address,address)": {
        "details": "See {IERC1155-isApprovedForAll}."
      },
      "safeBatchTransferFrom(address,address,uint256[],uint256[],bytes)": {
        "details": "See {IERC1155-safeBatchTransferFrom}."
      },
      "safeTransferFrom(address,address,uint256,uint256,bytes)": {
        "details": "See {IERC1155-safeTransferFrom}."
      },
      "setApprovalForAll(address,bool)": {
        "details": "See {IERC1155-setApprovalForAll}."
      },
      "supportsInterface(bytes4)": {
        "details": "See {IERC165-supportsInterface}."
      }
    },
    "version": 1
  },
  "userdoc": {
    "kind": "user",
    "methods": {},
    "version": 1
  }
}