{
  "contractName": "ArtToken",
  "abi": [
    {
      "inputs": [
        {
          "internalType": "uint256",
          "name": "_totalPaintings",
          "type": "uint256"
        },
        {
          "internalType": "string[]",
          "name": "uris",
          "type": "string[]"
        }
      ],
      "stateMutability": "nonpayable",
      "type": "constructor"
    },
    {
      "anonymous": false,
      "inputs": [
        {
          "indexed": true,
          "internalType": "address",
          "name": "account",
          "type": "address"
        },
        {
          "indexed": true,
          "internalType": "address",
          "name": "operator",
          "type": "address"
        },
        {
          "indexed": false,
          "internalType": "bool",
          "name": "approved",
          "type": "bool"
        }
      ],
      "name": "ApprovalForAll",
      "type": "event"
    },
    {
      "anonymous": false,
      "inputs": [
        {
          "indexed": true,
          "internalType": "address",
          "name": "operator",
          "type": "address"
        },
        {
          "indexed": true,
          "internalType": "address",
          "name": "from",
          "type": "address"
        },
        {
          "indexed": true,
          "internalType": "address",
          "name": "to",
          "type": "address"
        },
        {
          "indexed": false,
          "internalType": "uint256[]",
          "name": "ids",
          "type": "uint256[]"
        },
        {
          "indexed": false,
          "internalType": "uint256[]",
          "name": "values",
          "type": "uint256[]"
        }
      ],
      "name": "TransferBatch",
      "type": "event"
    },
    {
      "anonymous": false,
      "inputs": [
        {
          "indexed": true,
          "internalType": "address",
          "name": "operator",
          "type": "address"
        },
        {
          "indexed": true,
          "internalType": "address",
          "name": "from",
          "type": "address"
        },
        {
          "indexed": true,
          "internalType": "address",
          "name": "to",
          "type": "address"
        },
        {
          "indexed": false,
          "internalType": "uint256",
          "name": "id",
          "type": "uint256"
        },
        {
          "indexed": false,
          "internalType": "uint256",
          "name": "value",
          "type": "uint256"
        }
      ],
      "name": "TransferSingle",
      "type": "event"
    },
    {
      "anonymous": false,
      "inputs": [
        {
          "indexed": false,
          "internalType": "string",
          "name": "value",
          "type": "string"
        },
        {
          "indexed": true,
          "internalType": "uint256",
          "name": "id",
          "type": "uint256"
        }
      ],
      "name": "URI",
      "type": "event"
    },
    {
      "inputs": [],
      "name": "MAX_MINT",
      "outputs": [
        {
          "internalType": "uint256",
          "name": "",
          "type": "uint256"
        }
      ],
      "stateMutability": "view",
      "type": "function",
      "constant": true
    },
    {
      "inputs": [],
      "name": "UNIT_PRICE",
      "outputs": [
        {
          "internalType": "uint256",
          "name": "",
          "type": "uint256"
        }
      ],
      "stateMutability": "view",
      "type": "function",
      "constant": true
    },
    {
      "inputs": [
        {
          "internalType": "address",
          "name": "account",
          "type": "address"
        },
        {
          "internalType": "uint256",
          "name": "id",
          "type": "uint256"
        }
      ],
      "name": "balanceOf",
      "outputs": [
        {
          "internalType": "uint256",
          "name": "",
          "type": "uint256"
        }
      ],
      "stateMutability": "view",
      "type": "function",
      "constant": true
    },
    {
      "inputs": [
        {
          "internalType": "address[]",
          "name": "accounts",
          "type": "address[]"
        },
        {
          "internalType": "uint256[]",
          "name": "ids",
          "type": "uint256[]"
        }
      ],
      "name": "balanceOfBatch",
      "outputs": [
        {
          "internalType": "uint256[]",
          "name": "",
          "type": "uint256[]"
        }
      ],
      "stateMutability": "view",
      "type": "function",
      "constant": true
    },
    {
      "inputs": [
        {
          "internalType": "address",
          "name": "account",
          "type": "address"
        },
        {
          "internalType": "address",
          "name": "operator",
          "type": "address"
        }
      ],
      "name": "isApprovedForAll",
      "outputs": [
        {
          "internalType": "bool",
          "name": "",
          "type": "bool"
        }
      ],
      "stateMutability": "view",
      "type": "function",
      "constant": true
    },
    {
      "inputs": [],
      "name": "owner",
      "outputs": [
        {
          "internalType": "address",
          "name": "",
          "type": "address"
        }
      ],
      "stateMutability": "view",
      "type": "function",
      "constant": true
    },
    {
      "inputs": [
        {
          "internalType": "uint256",
          "name": "",
          "type": "uint256"
        }
      ],
      "name": "paintingsCount",
      "outputs": [
        {
          "internalType": "uint256",
          "name": "",
          "type": "uint256"
        }
      ],
      "stateMutability": "view",
      "type": "function",
      "constant": true
    },
    {
      "inputs": [
        {
          "internalType": "address",
          "name": "from",
          "type": "address"
        },
        {
          "internalType": "address",
          "name": "to",
          "type": "address"
        },
        {
          "internalType": "uint256[]",
          "name": "ids",
          "type": "uint256[]"
        },
        {
          "internalType": "uint256[]",
          "name": "amounts",
          "type": "uint256[]"
        },
        {
          "internalType": "bytes",
          "name": "data",
          "type": "bytes"
        }
      ],
      "name": "safeBatchTransferFrom",
      "outputs": [],
      "stateMutability": "nonpayable",
      "type": "function"
    },
    {
      "inputs": [
        {
          "internalType": "address",
          "name": "from",
          "type": "address"
        },
        {
          "internalType": "address",
          "name": "to",
          "type": "address"
        },
        {
          "internalType": "uint256",
          "name": "id",
          "type": "uint256"
        },
        {
          "internalType": "uint256",
          "name": "amount",
          "type": "uint256"
        },
        {
          "internalType": "bytes",
          "name": "data",
          "type": "bytes"
        }
      ],
      "name": "safeTransferFrom",
      "outputs": [],
      "stateMutability": "nonpayable",
      "type": "function"
    },
    {
      "inputs": [
        {
          "internalType": "address",
          "name": "operator",
          "type": "address"
        },
        {
          "internalType": "bool",
          "name": "approved",
          "type": "bool"
        }
      ],
      "name": "setApprovalForAll",
      "outputs": [],
      "stateMutability": "nonpayable",
      "type": "function"
    },
    {
      "inputs": [
        {
          "internalType": "bytes4",
          "name": "interfaceId",
          "type": "bytes4"
        }
      ],
      "name": "supportsInterface",
      "outputs": [
        {
          "internalType": "bool",
          "name": "",
          "type": "bool"
        }
      ],
      "stateMutability": "view",
      "type": "function",
      "constant": true
    },
    {
      "inputs": [
        {
          "internalType": "uint256",
          "name": "",
          "type": "uint256"
        }
      ],
      "name": "tokenUriMapping",
      "outputs": [
        {
          "internalType": "string",
          "name": "",
          "type": "string"
        }
      ],
      "stateMutability": "view",
      "type": "function",
      "constant": true
    },
    {
      "inputs": [],
      "name": "totalPaintings",
      "outputs": [
        {
          "internalType": "uint256",
          "name": "",
          "type": "uint256"
        }
      ],
      "stateMutability": "view",
      "type": "function",
      "constant": true
    },
    {
      "inputs": [
        {
          "internalType": "uint256",
          "name": "tokenId",
          "type": "uint256"
        }
      ],
      "name": "uri",
      "outputs": [
        {
          "internalType": "string",
          "name": "",
          "type": "string"
        }
      ],
      "stateMutability": "view",
      "type": "function",
      "constant": true
    },
    {
      "inputs": [],
      "name": "getUris",
      "outputs": [
        {
          "internalType": "string[]",
          "name": "",
          "type": "string[]"
        }
      ],
      "stateMutability": "view",
      "type": "function",
      "constant": true
    },
    {
      "inputs": [
        {
          "internalType": "uint256",
          "name": "pictureId",
          "type": "uint256"
        }
      ],
      "name": "mintArtToken",
      "outputs": [],
      "stateMutability": "payable",
      "type": "function",
      "payable": true
    },
    {
      "inputs": [],
      "name": "getMyBalances",
      "outputs": [
        {
          "internalType": "uint256[]",
          "name": "",
          "type": "uint256[]"
        }
      ],
      "stateMutability": "view",
      "type": "function",
      "constant": true
    }
  ],
  "bytecode": "0x608060405260006007553480156200001657600080fd5b50604051620039e5380380620039e583398181016040528101906200003c91906200037d565b604051806020016040528060008152506200005d816200016860201b60201c565b5080518214620000a4576040517f08c379a00000000000000000000000000000000000000000000000000000000081526004016200009b90620003fe565b60405180910390fd5b8160078190555033600460006101000a81548173ffffffffffffffffffffffffffffffffffffffff021916908373ffffffffffffffffffffffffffffffffffffffff16021790555060005b828110156200015f576200014b8183838151811062000137577f4e487b7100000000000000000000000000000000000000000000000000000000600052603260045260246000fd5b60200260200101516200018460201b60201c565b8062000157906200056b565b9050620000ef565b505050620006c0565b806002908051906020019062000180929190620001b2565b5050565b80600560008481526020019081526020016000209080519060200190620001ad929190620001b2565b505050565b828054620001c090620004ff565b90600052602060002090601f016020900481019282620001e4576000855562000230565b82601f10620001ff57805160ff191683800117855562000230565b8280016001018555821562000230579182015b828111156200022f57825182559160200191906001019062000212565b5b5090506200023f919062000243565b5090565b5b808211156200025e57600081600090555060010162000244565b5090565b600062000279620002738462000449565b62000420565b9050808382526020820190508260005b85811015620002bd5781518501620002a2888262000339565b84526020840193506020830192505060018101905062000289565b5050509392505050565b6000620002de620002d88462000478565b62000420565b905082815260208101848484011115620002f757600080fd5b62000304848285620004c9565b509392505050565b600082601f8301126200031e57600080fd5b81516200033084826020860162000262565b91505092915050565b600082601f8301126200034b57600080fd5b81516200035d848260208601620002c7565b91505092915050565b6000815190506200037781620006a6565b92915050565b600080604083850312156200039157600080fd5b6000620003a18582860162000366565b925050602083015167ffffffffffffffff811115620003bf57600080fd5b620003cd858286016200030c565b9150509250929050565b6000620003e6603083620004ae565b9150620003f38262000657565b604082019050919050565b600060208201905081810360008301526200041981620003d7565b9050919050565b60006200042c6200043f565b90506200043a828262000535565b919050565b6000604051905090565b600067ffffffffffffffff82111562000467576200046662000617565b5b602082029050602081019050919050565b600067ffffffffffffffff82111562000496576200049562000617565b5b620004a18262000646565b9050602081019050919050565b600082825260208201905092915050565b6000819050919050565b60005b83811015620004e9578082015181840152602081019050620004cc565b83811115620004f9576000848401525b50505050565b600060028204905060018216806200051857607f821691505b602082108114156200052f576200052e620005e8565b5b50919050565b620005408262000646565b810181811067ffffffffffffffff8211171562000562576200056162000617565b5b80604052505050565b60006200057882620004bf565b91507fffffffffffffffffffffffffffffffffffffffffffffffffffffffffffffffff821415620005ae57620005ad620005b9565b5b600182019050919050565b7f4e487b7100000000000000000000000000000000000000000000000000000000600052601160045260246000fd5b7f4e487b7100000000000000000000000000000000000000000000000000000000600052602260045260246000fd5b7f4e487b7100000000000000000000000000000000000000000000000000000000600052604160045260246000fd5b6000601f19601f8301169050919050565b7f75726973206c656e67746820616e642074686520746f74616c207061696e746960008201527f6e677320646f206e6f74206d6174636800000000000000000000000000000000602082015250565b620006b181620004bf565b8114620006bd57600080fd5b50565b61331580620006d06000396000f3fe6080604052600436106100fd5760003560e01c8063a98048df11610095578063eafe4f3011610064578063eafe4f301461036e578063f0292a031461038a578063f242432a146103b5578063f46f830a146103de578063fe9c8bfa1461041b576100fd565b8063a98048df146102b0578063afa40bbd146102db578063dfcdfc3f14610306578063e985e9c514610331576100fd565b80634e1273f4116100d15780634e1273f4146101e257806351a5c1691461021f5780638da5cb5b1461025c578063a22cb46514610287576100fd565b8062fdd58e1461010257806301ffc9a71461013f5780630e89341c1461017c5780632eb2c2d6146101b9575b600080fd5b34801561010e57600080fd5b5061012960048036038101906101249190612070565b610446565b60405161013691906128fb565b60405180910390f35b34801561014b57600080fd5b5061016660048036038101906101619190612118565b61050f565b60405161017391906126de565b60405180910390f35b34801561018857600080fd5b506101a3600480360381019061019e919061216a565b6105f1565b6040516101b091906126f9565b60405180910390f35b3480156101c557600080fd5b506101e060048036038101906101db9190611ee6565b610696565b005b3480156101ee57600080fd5b50610209600480360381019061020491906120ac565b610737565b6040516102169190612685565b60405180910390f35b34801561022b57600080fd5b506102466004803603810190610241919061216a565b6108e8565b60405161025391906128fb565b60405180910390f35b34801561026857600080fd5b50610271610900565b60405161027e9190612586565b60405180910390f35b34801561029357600080fd5b506102ae60048036038101906102a99190612034565b610926565b005b3480156102bc57600080fd5b506102c5610aa7565b6040516102d29190612685565b60405180910390f35b3480156102e757600080fd5b506102f0610b99565b6040516102fd91906128fb565b60405180910390f35b34801561031257600080fd5b5061031b610ba3565b6040516103289190612663565b60405180910390f35b34801561033d57600080fd5b5061035860048036038101906103539190611eaa565b610c92565b60405161036591906126de565b60405180910390f35b6103886004803603810190610383919061216a565b610d26565b005b34801561039657600080fd5b5061039f610ec8565b6040516103ac91906128fb565b60405180910390f35b3480156103c157600080fd5b506103dc60048036038101906103d79190611fa5565b610ecd565b005b3480156103ea57600080fd5b506104056004803603810190610400919061216a565b610f6e565b60405161041291906126f9565b60405180910390f35b34801561042757600080fd5b5061043061100e565b60405161043d91906128fb565b60405180910390f35b60008073ffffffffffffffffffffffffffffffffffffffff168373ffffffffffffffffffffffffffffffffffffffff1614156104b7576040517f08c379a00000000000000000000000000000000000000000000000000000000081526004016104ae9061277b565b60405180910390fd5b60008083815260200190815260200160002060008473ffffffffffffffffffffffffffffffffffffffff1673ffffffffffffffffffffffffffffffffffffffff16815260200190815260200160002054905092915050565b60007fd9b67a26000000000000000000000000000000000000000000000000000000007bffffffffffffffffffffffffffffffffffffffffffffffffffffffff1916827bffffffffffffffffffffffffffffffffffffffffffffffffffffffff191614806105da57507f0e89341c000000000000000000000000000000000000000000000000000000007bffffffffffffffffffffffffffffffffffffffffffffffffffffffff1916827bffffffffffffffffffffffffffffffffffffffffffffffffffffffff1916145b806105ea57506105e982611014565b5b9050919050565b606060056000838152602001908152602001600020805461061190612be5565b80601f016020809104026020016040519081016040528092919081815260200182805461063d90612be5565b801561068a5780601f1061065f5761010080835404028352916020019161068a565b820191906000526020600020905b81548152906001019060200180831161066d57829003601f168201915b50505050509050919050565b61069e61107e565b73ffffffffffffffffffffffffffffffffffffffff168573ffffffffffffffffffffffffffffffffffffffff1614806106e457506106e3856106de61107e565b610c92565b5b610723576040517f08c379a000000000000000000000000000000000000000000000000000000000815260040161071a906127fb565b60405180910390fd5b6107308585858585611086565b5050505050565b6060815183511461077d576040517f08c379a00000000000000000000000000000000000000000000000000000000081526004016107749061289b565b60405180910390fd5b6000835167ffffffffffffffff8111156107c0577f4e487b7100000000000000000000000000000000000000000000000000000000600052604160045260246000fd5b6040519080825280602002602001820160405280156107ee5781602001602082028036833780820191505090505b50905060005b84518110156108dd57610887858281518110610839577f4e487b7100000000000000000000000000000000000000000000000000000000600052603260045260246000fd5b602002602001015185838151811061087a577f4e487b7100000000000000000000000000000000000000000000000000000000600052603260045260246000fd5b6020026020010151610446565b8282815181106108c0577f4e487b7100000000000000000000000000000000000000000000000000000000600052603260045260246000fd5b602002602001018181525050806108d690612c48565b90506107f4565b508091505092915050565b60066020528060005260406000206000915090505481565b600460009054906101000a900473ffffffffffffffffffffffffffffffffffffffff1681565b8173ffffffffffffffffffffffffffffffffffffffff1661094561107e565b73ffffffffffffffffffffffffffffffffffffffff16141561099c576040517f08c379a00000000000000000000000000000000000000000000000000000000081526004016109939061287b565b60405180910390fd5b80600160006109a961107e565b73ffffffffffffffffffffffffffffffffffffffff1673ffffffffffffffffffffffffffffffffffffffff16815260200190815260200160002060008473ffffffffffffffffffffffffffffffffffffffff1673ffffffffffffffffffffffffffffffffffffffff16815260200190815260200160002060006101000a81548160ff0219169083151502179055508173ffffffffffffffffffffffffffffffffffffffff16610a5661107e565b73ffffffffffffffffffffffffffffffffffffffff167f17307eab39ab6107e8899845ad3d59bd9653f200f220920489ca2b5937696c3183604051610a9b91906126de565b60405180910390a35050565b60606000339050600060075467ffffffffffffffff811115610af2577f4e487b7100000000000000000000000000000000000000000000000000000000600052604160045260246000fd5b604051908082528060200260200182016040528015610b205781602001602082028036833780820191505090505b50905060005b600754811015610b9057610b3a8382610446565b828281518110610b73577f4e487b7100000000000000000000000000000000000000000000000000000000600052603260045260246000fd5b60200260200101818152505080610b8990612c48565b9050610b26565b50809250505090565b6509184e72a00081565b6060600060075467ffffffffffffffff811115610be9577f4e487b7100000000000000000000000000000000000000000000000000000000600052604160045260246000fd5b604051908082528060200260200182016040528015610c1c57816020015b6060815260200190600190039081610c075790505b50905060005b600754811015610c8a57610c35816105f1565b828281518110610c6e577f4e487b7100000000000000000000000000000000000000000000000000000000600052603260045260246000fd5b602002602001018190525080610c8390612c48565b9050610c22565b508091505090565b6000600160008473ffffffffffffffffffffffffffffffffffffffff1673ffffffffffffffffffffffffffffffffffffffff16815260200190815260200160002060008373ffffffffffffffffffffffffffffffffffffffff1673ffffffffffffffffffffffffffffffffffffffff16815260200190815260200160002060009054906101000a900460ff16905092915050565b600033905060003490506509184e72a000811015610d79576040517f08c379a0000000000000000000000000000000000000000000000000000000008152600401610d709061283b565b60405180910390fd5b6007548310610dbd576040517f08c379a0000000000000000000000000000000000000000000000000000000008152600401610db49061279b565b60405180910390fd5b60006509184e72a00082610dd19190612c91565b14610e11576040517f08c379a0000000000000000000000000000000000000000000000000000000008152600401610e089061285b565b60405180910390fd5b60006509184e72a00082610e259190612afe565b90506000816006600087815260200190815260200160002054610e489190612aa8565b90506064811115610e8e576040517f08c379a0000000000000000000000000000000000000000000000000000000008152600401610e859061273b565b60405180910390fd5b806006600087815260200190815260200160002081905550610ec1848684604051806020016040528060008152506113e6565b5050505050565b606481565b610ed561107e565b73ffffffffffffffffffffffffffffffffffffffff168573ffffffffffffffffffffffffffffffffffffffff161480610f1b5750610f1a85610f1561107e565b610c92565b5b610f5a576040517f08c379a0000000000000000000000000000000000000000000000000000000008152600401610f51906127bb565b60405180910390fd5b610f67858585858561157c565b5050505050565b60056020528060005260406000206000915090508054610f8d90612be5565b80601f0160208091040260200160405190810160405280929190818152602001828054610fb990612be5565b80156110065780601f10610fdb57610100808354040283529160200191611006565b820191906000526020600020905b815481529060010190602001808311610fe957829003601f168201915b505050505081565b60075481565b60007f01ffc9a7000000000000000000000000000000000000000000000000000000007bffffffffffffffffffffffffffffffffffffffffffffffffffffffff1916827bffffffffffffffffffffffffffffffffffffffffffffffffffffffff1916149050919050565b600033905090565b81518351146110ca576040517f08c379a00000000000000000000000000000000000000000000000000000000081526004016110c1906128bb565b60405180910390fd5b600073ffffffffffffffffffffffffffffffffffffffff168473ffffffffffffffffffffffffffffffffffffffff16141561113a576040517f08c379a0000000000000000000000000000000000000000000000000000000008152600401611131906127db565b60405180910390fd5b600061114461107e565b90506111548187878787876117fe565b60005b845181101561135157600085828151811061119b577f4e487b7100000000000000000000000000000000000000000000000000000000600052603260045260246000fd5b6020026020010151905060008583815181106111e0577f4e487b7100000000000000000000000000000000000000000000000000000000600052603260045260246000fd5b60200260200101519050600080600084815260200190815260200160002060008b73ffffffffffffffffffffffffffffffffffffffff1673ffffffffffffffffffffffffffffffffffffffff16815260200190815260200160002054905081811015611281576040517f08c379a00000000000000000000000000000000000000000000000000000000081526004016112789061281b565b60405180910390fd5b81810360008085815260200190815260200160002060008c73ffffffffffffffffffffffffffffffffffffffff1673ffffffffffffffffffffffffffffffffffffffff168152602001908152602001600020819055508160008085815260200190815260200160002060008b73ffffffffffffffffffffffffffffffffffffffff1673ffffffffffffffffffffffffffffffffffffffff16815260200190815260200160002060008282546113369190612aa8565b925050819055505050508061134a90612c48565b9050611157565b508473ffffffffffffffffffffffffffffffffffffffff168673ffffffffffffffffffffffffffffffffffffffff168273ffffffffffffffffffffffffffffffffffffffff167f4a39dc06d4c0dbc64b70af90fd698a233a518aa5d07e595d983b8c0526c8f7fb87876040516113c89291906126a7565b60405180910390a46113de818787878787611806565b505050505050565b600073ffffffffffffffffffffffffffffffffffffffff168473ffffffffffffffffffffffffffffffffffffffff161415611456576040517f08c379a000000000000000000000000000000000000000000000000000000000815260040161144d906128db565b60405180910390fd5b600061146061107e565b905061148181600087611472886119ed565b61147b886119ed565b876117fe565b8260008086815260200190815260200160002060008773ffffffffffffffffffffffffffffffffffffffff1673ffffffffffffffffffffffffffffffffffffffff16815260200190815260200160002060008282546114e09190612aa8565b925050819055508473ffffffffffffffffffffffffffffffffffffffff16600073ffffffffffffffffffffffffffffffffffffffff168273ffffffffffffffffffffffffffffffffffffffff167fc3d58168c5ae7397731d063d5bbf3d657854427343f4c083240f7aacaa2d0f62878760405161155e929190612916565b60405180910390a461157581600087878787611ab3565b5050505050565b600073ffffffffffffffffffffffffffffffffffffffff168473ffffffffffffffffffffffffffffffffffffffff1614156115ec576040517f08c379a00000000000000000000000000000000000000000000000000000000081526004016115e3906127db565b60405180910390fd5b60006115f661107e565b9050611616818787611607886119ed565b611610886119ed565b876117fe565b600080600086815260200190815260200160002060008873ffffffffffffffffffffffffffffffffffffffff1673ffffffffffffffffffffffffffffffffffffffff168152602001908152602001600020549050838110156116ad576040517f08c379a00000000000000000000000000000000000000000000000000000000081526004016116a49061281b565b60405180910390fd5b83810360008087815260200190815260200160002060008973ffffffffffffffffffffffffffffffffffffffff1673ffffffffffffffffffffffffffffffffffffffff168152602001908152602001600020819055508360008087815260200190815260200160002060008873ffffffffffffffffffffffffffffffffffffffff1673ffffffffffffffffffffffffffffffffffffffff16815260200190815260200160002060008282546117629190612aa8565b925050819055508573ffffffffffffffffffffffffffffffffffffffff168773ffffffffffffffffffffffffffffffffffffffff168373ffffffffffffffffffffffffffffffffffffffff167fc3d58168c5ae7397731d063d5bbf3d657854427343f4c083240f7aacaa2d0f6288886040516117df929190612916565b60405180910390a46117f5828888888888611ab3565b50505050505050565b505050505050565b6118258473ffffffffffffffffffffffffffffffffffffffff16611c9a565b156119e5578373ffffffffffffffffffffffffffffffffffffffff1663bc197c8187878686866040518663ffffffff1660e01b815260040161186b9594939291906125a1565b602060405180830381600087803b15801561188557600080fd5b505af19250505080156118b657506040513d601f19601f820116820180604052508101906118b39190612141565b60015b61195c576118c2612d7e565b806308c379a0141561191f57506118d76131ed565b806118e25750611921565b806040517f08c379a000000000000000000000000000000000000000000000000000000000815260040161191691906126f9565b60405180910390fd5b505b6040517f08c379a00000000000000000000000000000000000000000000000000000000081526004016119539061271b565b60405180910390fd5b63bc197c8160e01b7bffffffffffffffffffffffffffffffffffffffffffffffffffffffff1916817bffffffffffffffffffffffffffffffffffffffffffffffffffffffff1916146119e3576040517f08c379a00000000000000000000000000000000000000000000000000000000081526004016119da9061275b565b60405180910390fd5b505b505050505050565b60606000600167ffffffffffffffff811115611a32577f4e487b7100000000000000000000000000000000000000000000000000000000600052604160045260246000fd5b604051908082528060200260200182016040528015611a605781602001602082028036833780820191505090505b5090508281600081518110611a9e577f4e487b7100000000000000000000000000000000000000000000000000000000600052603260045260246000fd5b60200260200101818152505080915050919050565b611ad28473ffffffffffffffffffffffffffffffffffffffff16611c9a565b15611c92578373ffffffffffffffffffffffffffffffffffffffff1663f23a6e6187878686866040518663ffffffff1660e01b8152600401611b18959493929190612609565b602060405180830381600087803b158015611b3257600080fd5b505af1925050508015611b6357506040513d601f19601f82011682018060405250810190611b609190612141565b60015b611c0957611b6f612d7e565b806308c379a01415611bcc5750611b846131ed565b80611b8f5750611bce565b806040517f08c379a0000000000000000000000000000000000000000000000000000000008152600401611bc391906126f9565b60405180910390fd5b505b6040517f08c379a0000000000000000000000000000000000000000000000000000000008152600401611c009061271b565b60405180910390fd5b63f23a6e6160e01b7bffffffffffffffffffffffffffffffffffffffffffffffffffffffff1916817bffffffffffffffffffffffffffffffffffffffffffffffffffffffff191614611c90576040517f08c379a0000000000000000000000000000000000000000000000000000000008152600401611c879061275b565b60405180910390fd5b505b505050505050565b600080823b905060008111915050919050565b6000611cc0611cbb84612964565b61293f565b90508083825260208201905082856020860282011115611cdf57600080fd5b60005b85811015611d0f5781611cf58882611dc3565b845260208401935060208301925050600181019050611ce2565b5050509392505050565b6000611d2c611d2784612990565b61293f565b90508083825260208201905082856020860282011115611d4b57600080fd5b60005b85811015611d7b5781611d618882611e95565b845260208401935060208301925050600181019050611d4e565b5050509392505050565b6000611d98611d93846129bc565b61293f565b905082815260208101848484011115611db057600080fd5b611dbb848285612ba3565b509392505050565b600081359050611dd281613283565b92915050565b600082601f830112611de957600080fd5b8135611df9848260208601611cad565b91505092915050565b600082601f830112611e1357600080fd5b8135611e23848260208601611d19565b91505092915050565b600081359050611e3b8161329a565b92915050565b600081359050611e50816132b1565b92915050565b600081519050611e65816132b1565b92915050565b600082601f830112611e7c57600080fd5b8135611e8c848260208601611d85565b91505092915050565b600081359050611ea4816132c8565b92915050565b60008060408385031215611ebd57600080fd5b6000611ecb85828601611dc3565b9250506020611edc85828601611dc3565b9150509250929050565b600080600080600060a08688031215611efe57600080fd5b6000611f0c88828901611dc3565b9550506020611f1d88828901611dc3565b945050604086013567ffffffffffffffff811115611f3a57600080fd5b611f4688828901611e02565b935050606086013567ffffffffffffffff811115611f6357600080fd5b611f6f88828901611e02565b925050608086013567ffffffffffffffff811115611f8c57600080fd5b611f9888828901611e6b565b9150509295509295909350565b600080600080600060a08688031215611fbd57600080fd5b6000611fcb88828901611dc3565b9550506020611fdc88828901611dc3565b9450506040611fed88828901611e95565b9350506060611ffe88828901611e95565b925050608086013567ffffffffffffffff81111561201b57600080fd5b61202788828901611e6b565b9150509295509295909350565b6000806040838503121561204757600080fd5b600061205585828601611dc3565b925050602061206685828601611e2c565b9150509250929050565b6000806040838503121561208357600080fd5b600061209185828601611dc3565b92505060206120a285828601611e95565b9150509250929050565b600080604083850312156120bf57600080fd5b600083013567ffffffffffffffff8111156120d957600080fd5b6120e585828601611dd8565b925050602083013567ffffffffffffffff81111561210257600080fd5b61210e85828601611e02565b9150509250929050565b60006020828403121561212a57600080fd5b600061213884828501611e41565b91505092915050565b60006020828403121561215357600080fd5b600061216184828501611e56565b91505092915050565b60006020828403121561217c57600080fd5b600061218a84828501611e95565b91505092915050565b600061219f83836122e9565b905092915050565b60006121b38383612568565b60208301905092915050565b6121c881612b2f565b82525050565b60006121d982612a0d565b6121e38185612a53565b9350836020820285016121f5856129ed565b8060005b8581101561223157848403895281516122128582612193565b945061221d83612a39565b925060208a019950506001810190506121f9565b50829750879550505050505092915050565b600061224e82612a18565b6122588185612a64565b9350612263836129fd565b8060005b8381101561229457815161227b88826121a7565b975061228683612a46565b925050600181019050612267565b5085935050505092915050565b6122aa81612b41565b82525050565b60006122bb82612a23565b6122c58185612a75565b93506122d5818560208601612bb2565b6122de81612da0565b840191505092915050565b60006122f482612a2e565b6122fe8185612a86565b935061230e818560208601612bb2565b61231781612da0565b840191505092915050565b600061232d82612a2e565b6123378185612a97565b9350612347818560208601612bb2565b61235081612da0565b840191505092915050565b6000612368603483612a97565b915061237382612dbe565b604082019050919050565b600061238b602283612a97565b915061239682612e0d565b604082019050919050565b60006123ae602883612a97565b91506123b982612e5c565b604082019050919050565b60006123d1602b83612a97565b91506123dc82612eab565b604082019050919050565b60006123f4601b83612a97565b91506123ff82612efa565b602082019050919050565b6000612417602983612a97565b915061242282612f23565b604082019050919050565b600061243a602583612a97565b915061244582612f72565b604082019050919050565b600061245d603283612a97565b915061246882612fc1565b604082019050919050565b6000612480602a83612a97565b915061248b82613010565b604082019050919050565b60006124a3601383612a97565b91506124ae8261305f565b602082019050919050565b60006124c6601b83612a97565b91506124d182613088565b602082019050919050565b60006124e9602983612a97565b91506124f4826130b1565b604082019050919050565b600061250c602983612a97565b915061251782613100565b604082019050919050565b600061252f602883612a97565b915061253a8261314f565b604082019050919050565b6000612552602183612a97565b915061255d8261319e565b604082019050919050565b61257181612b99565b82525050565b61258081612b99565b82525050565b600060208201905061259b60008301846121bf565b92915050565b600060a0820190506125b660008301886121bf565b6125c360208301876121bf565b81810360408301526125d58186612243565b905081810360608301526125e98185612243565b905081810360808301526125fd81846122b0565b90509695505050505050565b600060a08201905061261e60008301886121bf565b61262b60208301876121bf565b6126386040830186612577565b6126456060830185612577565b818103608083015261265781846122b0565b90509695505050505050565b6000602082019050818103600083015261267d81846121ce565b905092915050565b6000602082019050818103600083015261269f8184612243565b905092915050565b600060408201905081810360008301526126c18185612243565b905081810360208301526126d58184612243565b90509392505050565b60006020820190506126f360008301846122a1565b92915050565b600060208201905081810360008301526127138184612322565b905092915050565b600060208201905081810360008301526127348161235b565b9050919050565b600060208201905081810360008301526127548161237e565b9050919050565b60006020820190508181036000830152612774816123a1565b9050919050565b60006020820190508181036000830152612794816123c4565b9050919050565b600060208201905081810360008301526127b4816123e7565b9050919050565b600060208201905081810360008301526127d48161240a565b9050919050565b600060208201905081810360008301526127f48161242d565b9050919050565b6000602082019050818103600083015261281481612450565b9050919050565b6000602082019050818103600083015261283481612473565b9050919050565b6000602082019050818103600083015261285481612496565b9050919050565b60006020820190508181036000830152612874816124b9565b9050919050565b60006020820190508181036000830152612894816124dc565b9050919050565b600060208201905081810360008301526128b4816124ff565b9050919050565b600060208201905081810360008301526128d481612522565b9050919050565b600060208201905081810360008301526128f481612545565b9050919050565b60006020820190506129106000830184612577565b92915050565b600060408201905061292b6000830185612577565b6129386020830184612577565b9392505050565b600061294961295a565b90506129558282612c17565b919050565b6000604051905090565b600067ffffffffffffffff82111561297f5761297e612d4f565b5b602082029050602081019050919050565b600067ffffffffffffffff8211156129ab576129aa612d4f565b5b602082029050602081019050919050565b600067ffffffffffffffff8211156129d7576129d6612d4f565b5b6129e082612da0565b9050602081019050919050565b6000819050602082019050919050565b6000819050602082019050919050565b600081519050919050565b600081519050919050565b600081519050919050565b600081519050919050565b6000602082019050919050565b6000602082019050919050565b600082825260208201905092915050565b600082825260208201905092915050565b600082825260208201905092915050565b600082825260208201905092915050565b600082825260208201905092915050565b6000612ab382612b99565b9150612abe83612b99565b9250827fffffffffffffffffffffffffffffffffffffffffffffffffffffffffffffffff03821115612af357612af2612cc2565b5b828201905092915050565b6000612b0982612b99565b9150612b1483612b99565b925082612b2457612b23612cf1565b5b828204905092915050565b6000612b3a82612b79565b9050919050565b60008115159050919050565b60007fffffffff0000000000000000000000000000000000000000000000000000000082169050919050565b600073ffffffffffffffffffffffffffffffffffffffff82169050919050565b6000819050919050565b82818337600083830152505050565b60005b83811015612bd0578082015181840152602081019050612bb5565b83811115612bdf576000848401525b50505050565b60006002820490506001821680612bfd57607f821691505b60208210811415612c1157612c10612d20565b5b50919050565b612c2082612da0565b810181811067ffffffffffffffff82111715612c3f57612c3e612d4f565b5b80604052505050565b6000612c5382612b99565b91507fffffffffffffffffffffffffffffffffffffffffffffffffffffffffffffffff821415612c8657612c85612cc2565b5b600182019050919050565b6000612c9c82612b99565b9150612ca783612b99565b925082612cb757612cb6612cf1565b5b828206905092915050565b7f4e487b7100000000000000000000000000000000000000000000000000000000600052601160045260246000fd5b7f4e487b7100000000000000000000000000000000000000000000000000000000600052601260045260246000fd5b7f4e487b7100000000000000000000000000000000000000000000000000000000600052602260045260246000fd5b7f4e487b7100000000000000000000000000000000000000000000000000000000600052604160045260246000fd5b600060033d1115612d9d5760046000803e612d9a600051612db1565b90505b90565b6000601f19601f8301169050919050565b60008160e01c9050919050565b7f455243313135353a207472616e7366657220746f206e6f6e204552433131353560008201527f526563656976657220696d706c656d656e746572000000000000000000000000602082015250565b7f54686973207061696e74696e67206861732072656163686564206d6178206d6960008201527f6e74000000000000000000000000000000000000000000000000000000000000602082015250565b7f455243313135353a204552433131353552656365697665722072656a6563746560008201527f6420746f6b656e73000000000000000000000000000000000000000000000000602082015250565b7f455243313135353a2062616c616e636520717565727920666f7220746865207a60008201527f65726f2061646472657373000000000000000000000000000000000000000000602082015250565b7f5061696e74696e67204944206973206f7574206f662072616e67650000000000600082015250565b7f455243313135353a2063616c6c6572206973206e6f74206f776e6572206e6f7260008201527f20617070726f7665640000000000000000000000000000000000000000000000602082015250565b7f455243313135353a207472616e7366657220746f20746865207a65726f20616460008201527f6472657373000000000000000000000000000000000000000000000000000000602082015250565b7f455243313135353a207472616e736665722063616c6c6572206973206e6f742060008201527f6f776e6572206e6f7220617070726f7665640000000000000000000000000000602082015250565b7f455243313135353a20696e73756666696369656e742062616c616e636520666f60008201527f72207472616e7366657200000000000000000000000000000000000000000000602082015250565b7f4e6f7420656e6f756768206574682073656e7400000000000000000000000000600082015250565b7f4e6f7420636f72726563742065746820616d6f756e742073656e740000000000600082015250565b7f455243313135353a2073657474696e6720617070726f76616c2073746174757360008201527f20666f722073656c660000000000000000000000000000000000000000000000602082015250565b7f455243313135353a206163636f756e747320616e6420696473206c656e67746860008201527f206d69736d617463680000000000000000000000000000000000000000000000602082015250565b7f455243313135353a2069647320616e6420616d6f756e7473206c656e6774682060008201527f6d69736d61746368000000000000000000000000000000000000000000000000602082015250565b7f455243313135353a206d696e7420746f20746865207a65726f2061646472657360008201527f7300000000000000000000000000000000000000000000000000000000000000602082015250565b600060443d10156131fd57613280565b61320561295a565b60043d036004823e80513d602482011167ffffffffffffffff8211171561322d575050613280565b808201805167ffffffffffffffff81111561324b5750505050613280565b80602083010160043d038501811115613268575050505050613280565b61327782602001850186612c17565b82955050505050505b90565b61328c81612b2f565b811461329757600080fd5b50565b6132a381612b41565b81146132ae57600080fd5b50565b6132ba81612b4d565b81146132c557600080fd5b50565b6132d181612b99565b81146132dc57600080fd5b5056fea264697066735822122004f8f514e79b8eb6ca05b7c3ca839386e8be900431cc3cf0b706c31d7e7218c464736f6c63430008010033",
  "immutableReferences": {},
  "source": "pragma solidity ^0.8.0;\r\n\r\nimport \"@openzeppelin/contracts/token/ERC1155/ERC1155.sol\";\r\nimport \"@openzeppelin/contracts/utils/Counters.sol\";\r\n\r\ncontract ArtToken is ERC1155 {\r\n    using Counters for Counters.Counter;\r\n    Counters.Counter private idCounter;\r\n    address public owner;\r\n\r\n    mapping(uint256 => string) public tokenUriMapping;\r\n    mapping(uint256 => uint256) public paintingsCount;\r\n\r\n    uint256 public totalPaintings = 0;\r\n\r\n\r\n    uint256 public constant UNIT_PRICE = 10000000000000;\r\n    uint256 public constant MAX_MINT = 100;\r\n\r\n    modifier onlyOwner(){\r\n        require(msg.sender == owner, \"You are not owner\");\r\n        _;\r\n    }\r\n\r\n    constructor(uint256 _totalPaintings, string[] memory uris) ERC1155(\"\") {\r\n        require(_totalPaintings== uris.length, \"uris length and the total paintings do not match\");\r\n        totalPaintings = _totalPaintings;\r\n        owner = msg.sender;\r\n        for (uint256 i = 0; i < _totalPaintings; ++i) {\r\n            setUri(i, uris[i]);\r\n        }\r\n    }\r\n\r\n    function setUri(uint256 tokenId, string memory newTokenUri) private {\r\n        tokenUriMapping[tokenId] = newTokenUri;\r\n    }\r\n\r\n    function uri(uint256 tokenId) public view override returns (string memory) {\r\n        return tokenUriMapping[tokenId];\r\n    }\r\n\r\n    function getUris() public view returns (string[] memory){\r\n        string[] memory uris = new string[](totalPaintings);\r\n        for(uint256 i=0; i<totalPaintings; ++i){\r\n            uris[i] = uri(i);\r\n        }\r\n        return uris;\r\n    }\r\n\r\n    \r\n\r\n    function mintArtToken(uint256 pictureId) payable public\r\n    {\r\n        address sender = msg.sender;\r\n        uint256 payment = msg.value;\r\n        require(payment >= UNIT_PRICE, \"Not enough eth sent\");\r\n        require(pictureId < totalPaintings, \"Painting ID is out of range\");\r\n        require(payment % UNIT_PRICE==0, \"Not correct eth amount sent\");\r\n        uint256 mintAmount = payment / UNIT_PRICE;\r\n        uint256 newPaintingCount = paintingsCount[pictureId] + mintAmount;\r\n        require(newPaintingCount <= MAX_MINT, \"This painting has reached max mint\");\r\n        paintingsCount[pictureId] = newPaintingCount;\r\n        _mint(\r\n            sender,\r\n            pictureId,\r\n            mintAmount,\r\n            \"\"\r\n        );\r\n    }\r\n\r\n    function getMyBalances() public view returns( uint256[] memory) {\r\n        address sender = msg.sender;\r\n        uint256[] memory balances = new uint256[](totalPaintings);\r\n        for(uint256 i=0; i<totalPaintings; ++i){\r\n            balances[i] = balanceOf(sender, i);\r\n        }\r\n        return balances;\r\n    }\r\n\r\n\r\n\r\n}",
  "sourcePath": "C:\\Users\\Caleb\\Desktop\\hackthon\\arts\\contracts\\ArtToken.sol",
  "compiler": {
    "name": "solc",
    "version": "0.8.1+commit.df193b15.Emscripten.clang"
  },
  "schemaVersion": "3.4.2",
  "updatedAt": "2021-11-07T05:57:18.982Z",
  "networkType": "ethereum",
  "devdoc": {
    "kind": "dev",
    "methods": {
      "balanceOf(address,uint256)": {
        "details": "See {IERC1155-balanceOf}. Requirements: - `account` cannot be the zero address."
      },
      "balanceOfBatch(address[],uint256[])": {
        "details": "See {IERC1155-balanceOfBatch}. Requirements: - `accounts` and `ids` must have the same length."
      },
      "isApprovedForAll(address,address)": {
        "details": "See {IERC1155-isApprovedForAll}."
      },
      "safeBatchTransferFrom(address,address,uint256[],uint256[],bytes)": {
        "details": "See {IERC1155-safeBatchTransferFrom}."
      },
      "safeTransferFrom(address,address,uint256,uint256,bytes)": {
        "details": "See {IERC1155-safeTransferFrom}."
      },
      "setApprovalForAll(address,bool)": {
        "details": "See {IERC1155-setApprovalForAll}."
      },
      "supportsInterface(bytes4)": {
        "details": "See {IERC165-supportsInterface}."
      }
    },
    "version": 1
  },
  "userdoc": {
    "kind": "user",
    "methods": {},
    "version": 1
  }
}