{
  "contractName": "ArtToken",
  "abi": [
    {
      "inputs": [
        {
          "internalType": "uint256",
          "name": "_totalPaintings",
          "type": "uint256"
        },
        {
          "internalType": "string[]",
          "name": "uris",
          "type": "string[]"
        }
      ],
      "stateMutability": "nonpayable",
      "type": "constructor"
    },
    {
      "anonymous": false,
      "inputs": [
        {
          "indexed": true,
          "internalType": "address",
          "name": "account",
          "type": "address"
        },
        {
          "indexed": true,
          "internalType": "address",
          "name": "operator",
          "type": "address"
        },
        {
          "indexed": false,
          "internalType": "bool",
          "name": "approved",
          "type": "bool"
        }
      ],
      "name": "ApprovalForAll",
      "type": "event"
    },
    {
      "anonymous": false,
      "inputs": [
        {
          "indexed": true,
          "internalType": "address",
          "name": "operator",
          "type": "address"
        },
        {
          "indexed": true,
          "internalType": "address",
          "name": "from",
          "type": "address"
        },
        {
          "indexed": true,
          "internalType": "address",
          "name": "to",
          "type": "address"
        },
        {
          "indexed": false,
          "internalType": "uint256[]",
          "name": "ids",
          "type": "uint256[]"
        },
        {
          "indexed": false,
          "internalType": "uint256[]",
          "name": "values",
          "type": "uint256[]"
        }
      ],
      "name": "TransferBatch",
      "type": "event"
    },
    {
      "anonymous": false,
      "inputs": [
        {
          "indexed": true,
          "internalType": "address",
          "name": "operator",
          "type": "address"
        },
        {
          "indexed": true,
          "internalType": "address",
          "name": "from",
          "type": "address"
        },
        {
          "indexed": true,
          "internalType": "address",
          "name": "to",
          "type": "address"
        },
        {
          "indexed": false,
          "internalType": "uint256",
          "name": "id",
          "type": "uint256"
        },
        {
          "indexed": false,
          "internalType": "uint256",
          "name": "value",
          "type": "uint256"
        }
      ],
      "name": "TransferSingle",
      "type": "event"
    },
    {
      "anonymous": false,
      "inputs": [
        {
          "indexed": false,
          "internalType": "string",
          "name": "value",
          "type": "string"
        },
        {
          "indexed": true,
          "internalType": "uint256",
          "name": "id",
          "type": "uint256"
        }
      ],
      "name": "URI",
      "type": "event"
    },
    {
      "inputs": [],
      "name": "MAX_MINT",
      "outputs": [
        {
          "internalType": "uint256",
          "name": "",
          "type": "uint256"
        }
      ],
      "stateMutability": "view",
      "type": "function"
    },
    {
      "inputs": [],
      "name": "UNIT_PRICE",
      "outputs": [
        {
          "internalType": "uint256",
          "name": "",
          "type": "uint256"
        }
      ],
      "stateMutability": "view",
      "type": "function"
    },
    {
      "inputs": [
        {
          "internalType": "address",
          "name": "account",
          "type": "address"
        },
        {
          "internalType": "uint256",
          "name": "id",
          "type": "uint256"
        }
      ],
      "name": "balanceOf",
      "outputs": [
        {
          "internalType": "uint256",
          "name": "",
          "type": "uint256"
        }
      ],
      "stateMutability": "view",
      "type": "function"
    },
    {
      "inputs": [
        {
          "internalType": "address[]",
          "name": "accounts",
          "type": "address[]"
        },
        {
          "internalType": "uint256[]",
          "name": "ids",
          "type": "uint256[]"
        }
      ],
      "name": "balanceOfBatch",
      "outputs": [
        {
          "internalType": "uint256[]",
          "name": "",
          "type": "uint256[]"
        }
      ],
      "stateMutability": "view",
      "type": "function"
    },
    {
      "inputs": [
        {
          "internalType": "address",
          "name": "account",
          "type": "address"
        },
        {
          "internalType": "address",
          "name": "operator",
          "type": "address"
        }
      ],
      "name": "isApprovedForAll",
      "outputs": [
        {
          "internalType": "bool",
          "name": "",
          "type": "bool"
        }
      ],
      "stateMutability": "view",
      "type": "function"
    },
    {
      "inputs": [],
      "name": "owner",
      "outputs": [
        {
          "internalType": "address",
          "name": "",
          "type": "address"
        }
      ],
      "stateMutability": "view",
      "type": "function"
    },
    {
      "inputs": [
        {
          "internalType": "uint256",
          "name": "",
          "type": "uint256"
        }
      ],
      "name": "paintingsCount",
      "outputs": [
        {
          "internalType": "uint256",
          "name": "",
          "type": "uint256"
        }
      ],
      "stateMutability": "view",
      "type": "function"
    },
    {
      "inputs": [
        {
          "internalType": "address",
          "name": "from",
          "type": "address"
        },
        {
          "internalType": "address",
          "name": "to",
          "type": "address"
        },
        {
          "internalType": "uint256[]",
          "name": "ids",
          "type": "uint256[]"
        },
        {
          "internalType": "uint256[]",
          "name": "amounts",
          "type": "uint256[]"
        },
        {
          "internalType": "bytes",
          "name": "data",
          "type": "bytes"
        }
      ],
      "name": "safeBatchTransferFrom",
      "outputs": [],
      "stateMutability": "nonpayable",
      "type": "function"
    },
    {
      "inputs": [
        {
          "internalType": "address",
          "name": "from",
          "type": "address"
        },
        {
          "internalType": "address",
          "name": "to",
          "type": "address"
        },
        {
          "internalType": "uint256",
          "name": "id",
          "type": "uint256"
        },
        {
          "internalType": "uint256",
          "name": "amount",
          "type": "uint256"
        },
        {
          "internalType": "bytes",
          "name": "data",
          "type": "bytes"
        }
      ],
      "name": "safeTransferFrom",
      "outputs": [],
      "stateMutability": "nonpayable",
      "type": "function"
    },
    {
      "inputs": [
        {
          "internalType": "address",
          "name": "operator",
          "type": "address"
        },
        {
          "internalType": "bool",
          "name": "approved",
          "type": "bool"
        }
      ],
      "name": "setApprovalForAll",
      "outputs": [],
      "stateMutability": "nonpayable",
      "type": "function"
    },
    {
      "inputs": [
        {
          "internalType": "bytes4",
          "name": "interfaceId",
          "type": "bytes4"
        }
      ],
      "name": "supportsInterface",
      "outputs": [
        {
          "internalType": "bool",
          "name": "",
          "type": "bool"
        }
      ],
      "stateMutability": "view",
      "type": "function"
    },
    {
      "inputs": [
        {
          "internalType": "uint256",
          "name": "",
          "type": "uint256"
        }
      ],
      "name": "tokenUriMapping",
      "outputs": [
        {
          "internalType": "string",
          "name": "",
          "type": "string"
        }
      ],
      "stateMutability": "view",
      "type": "function"
    },
    {
      "inputs": [],
      "name": "totalPaintings",
      "outputs": [
        {
          "internalType": "uint256",
          "name": "",
          "type": "uint256"
        }
      ],
      "stateMutability": "view",
      "type": "function"
    },
    {
      "inputs": [
        {
          "internalType": "uint256",
          "name": "tokenId",
          "type": "uint256"
        }
      ],
      "name": "uri",
      "outputs": [
        {
          "internalType": "string",
          "name": "",
          "type": "string"
        }
      ],
      "stateMutability": "view",
      "type": "function"
    },
    {
      "inputs": [],
      "name": "getUris",
      "outputs": [
        {
          "internalType": "string[]",
          "name": "",
          "type": "string[]"
        }
      ],
      "stateMutability": "view",
      "type": "function"
    },
    {
      "inputs": [
        {
          "internalType": "uint256",
          "name": "pictureId",
          "type": "uint256"
        }
      ],
      "name": "mintArtToken",
      "outputs": [],
      "stateMutability": "payable",
      "type": "function"
    },
    {
      "inputs": [],
      "name": "getMyBalances",
      "outputs": [
        {
          "internalType": "uint256[]",
          "name": "",
          "type": "uint256[]"
        }
      ],
      "stateMutability": "view",
      "type": "function"
    },
    {
      "inputs": [],
      "name": "withdrawEth",
      "outputs": [],
      "stateMutability": "payable",
      "type": "function"
    }
  ],
  "bytecode": "0x608060405260006007553480156200001657600080fd5b5060405162003b6138038062003b6183398181016040528101906200003c91906200037d565b604051806020016040528060008152506200005d816200016860201b60201c565b5080518214620000a4576040517f08c379a00000000000000000000000000000000000000000000000000000000081526004016200009b90620003fe565b60405180910390fd5b8160078190555033600460006101000a81548173ffffffffffffffffffffffffffffffffffffffff021916908373ffffffffffffffffffffffffffffffffffffffff16021790555060005b828110156200015f576200014b8183838151811062000137577f4e487b7100000000000000000000000000000000000000000000000000000000600052603260045260246000fd5b60200260200101516200018460201b60201c565b8062000157906200056b565b9050620000ef565b505050620006c0565b806002908051906020019062000180929190620001b2565b5050565b80600560008481526020019081526020016000209080519060200190620001ad929190620001b2565b505050565b828054620001c090620004ff565b90600052602060002090601f016020900481019282620001e4576000855562000230565b82601f10620001ff57805160ff191683800117855562000230565b8280016001018555821562000230579182015b828111156200022f57825182559160200191906001019062000212565b5b5090506200023f919062000243565b5090565b5b808211156200025e57600081600090555060010162000244565b5090565b600062000279620002738462000449565b62000420565b9050808382526020820190508260005b85811015620002bd5781518501620002a2888262000339565b84526020840193506020830192505060018101905062000289565b5050509392505050565b6000620002de620002d88462000478565b62000420565b905082815260208101848484011115620002f757600080fd5b62000304848285620004c9565b509392505050565b600082601f8301126200031e57600080fd5b81516200033084826020860162000262565b91505092915050565b600082601f8301126200034b57600080fd5b81516200035d848260208601620002c7565b91505092915050565b6000815190506200037781620006a6565b92915050565b600080604083850312156200039157600080fd5b6000620003a18582860162000366565b925050602083015167ffffffffffffffff811115620003bf57600080fd5b620003cd858286016200030c565b9150509250929050565b6000620003e6603083620004ae565b9150620003f38262000657565b604082019050919050565b600060208201905081810360008301526200041981620003d7565b9050919050565b60006200042c6200043f565b90506200043a828262000535565b919050565b6000604051905090565b600067ffffffffffffffff82111562000467576200046662000617565b5b602082029050602081019050919050565b600067ffffffffffffffff82111562000496576200049562000617565b5b620004a18262000646565b9050602081019050919050565b600082825260208201905092915050565b6000819050919050565b60005b83811015620004e9578082015181840152602081019050620004cc565b83811115620004f9576000848401525b50505050565b600060028204905060018216806200051857607f821691505b602082108114156200052f576200052e620005e8565b5b50919050565b620005408262000646565b810181811067ffffffffffffffff8211171562000562576200056162000617565b5b80604052505050565b60006200057882620004bf565b91507fffffffffffffffffffffffffffffffffffffffffffffffffffffffffffffffff821415620005ae57620005ad620005b9565b5b600182019050919050565b7f4e487b7100000000000000000000000000000000000000000000000000000000600052601160045260246000fd5b7f4e487b7100000000000000000000000000000000000000000000000000000000600052602260045260246000fd5b7f4e487b7100000000000000000000000000000000000000000000000000000000600052604160045260246000fd5b6000601f19601f8301169050919050565b7f75726973206c656e67746820616e642074686520746f74616c207061696e746960008201527f6e677320646f206e6f74206d6174636800000000000000000000000000000000602082015250565b620006b181620004bf565b8114620006bd57600080fd5b50565b61349180620006d06000396000f3fe6080604052600436106101085760003560e01c8063a98048df11610095578063eafe4f3011610064578063eafe4f3014610383578063f0292a031461039f578063f242432a146103ca578063f46f830a146103f3578063fe9c8bfa1461043057610108565b8063a98048df146102c5578063afa40bbd146102f0578063dfcdfc3f1461031b578063e985e9c51461034657610108565b80634e1273f4116100dc5780634e1273f4146101ed57806351a5c1691461022a5780638da5cb5b14610267578063a0ef91df14610292578063a22cb4651461029c57610108565b8062fdd58e1461010d57806301ffc9a71461014a5780630e89341c146101875780632eb2c2d6146101c4575b600080fd5b34801561011957600080fd5b50610134600480360381019061012f9190612180565b61045b565b6040516101419190612a4e565b60405180910390f35b34801561015657600080fd5b50610171600480360381019061016c9190612228565b610524565b60405161017e9190612811565b60405180910390f35b34801561019357600080fd5b506101ae60048036038101906101a9919061227a565b610606565b6040516101bb919061282c565b60405180910390f35b3480156101d057600080fd5b506101eb60048036038101906101e69190611ff6565b6106ab565b005b3480156101f957600080fd5b50610214600480360381019061020f91906121bc565b61074c565b60405161022191906127b8565b60405180910390f35b34801561023657600080fd5b50610251600480360381019061024c919061227a565b6108fd565b60405161025e9190612a4e565b60405180910390f35b34801561027357600080fd5b5061027c610915565b60405161028991906126b9565b60405180910390f35b61029a61093b565b005b3480156102a857600080fd5b506102c360048036038101906102be9190612144565b610a36565b005b3480156102d157600080fd5b506102da610bb7565b6040516102e791906127b8565b60405180910390f35b3480156102fc57600080fd5b50610305610ca9565b6040516103129190612a4e565b60405180910390f35b34801561032757600080fd5b50610330610cb3565b60405161033d9190612796565b60405180910390f35b34801561035257600080fd5b5061036d60048036038101906103689190611fba565b610da2565b60405161037a9190612811565b60405180910390f35b61039d6004803603810190610398919061227a565b610e36565b005b3480156103ab57600080fd5b506103b4610fd8565b6040516103c19190612a4e565b60405180910390f35b3480156103d657600080fd5b506103f160048036038101906103ec91906120b5565b610fdd565b005b3480156103ff57600080fd5b5061041a6004803603810190610415919061227a565b61107e565b604051610427919061282c565b60405180910390f35b34801561043c57600080fd5b5061044561111e565b6040516104529190612a4e565b60405180910390f35b60008073ffffffffffffffffffffffffffffffffffffffff168373ffffffffffffffffffffffffffffffffffffffff1614156104cc576040517f08c379a00000000000000000000000000000000000000000000000000000000081526004016104c3906128ae565b60405180910390fd5b60008083815260200190815260200160002060008473ffffffffffffffffffffffffffffffffffffffff1673ffffffffffffffffffffffffffffffffffffffff16815260200190815260200160002054905092915050565b60007fd9b67a26000000000000000000000000000000000000000000000000000000007bffffffffffffffffffffffffffffffffffffffffffffffffffffffff1916827bffffffffffffffffffffffffffffffffffffffffffffffffffffffff191614806105ef57507f0e89341c000000000000000000000000000000000000000000000000000000007bffffffffffffffffffffffffffffffffffffffffffffffffffffffff1916827bffffffffffffffffffffffffffffffffffffffffffffffffffffffff1916145b806105ff57506105fe82611124565b5b9050919050565b606060056000838152602001908152602001600020805461062690612d38565b80601f016020809104026020016040519081016040528092919081815260200182805461065290612d38565b801561069f5780601f106106745761010080835404028352916020019161069f565b820191906000526020600020905b81548152906001019060200180831161068257829003601f168201915b50505050509050919050565b6106b361118e565b73ffffffffffffffffffffffffffffffffffffffff168573ffffffffffffffffffffffffffffffffffffffff1614806106f957506106f8856106f361118e565b610da2565b5b610738576040517f08c379a000000000000000000000000000000000000000000000000000000000815260040161072f9061292e565b60405180910390fd5b6107458585858585611196565b5050505050565b60608151835114610792576040517f08c379a0000000000000000000000000000000000000000000000000000000008152600401610789906129ce565b60405180910390fd5b6000835167ffffffffffffffff8111156107d5577f4e487b7100000000000000000000000000000000000000000000000000000000600052604160045260246000fd5b6040519080825280602002602001820160405280156108035781602001602082028036833780820191505090505b50905060005b84518110156108f25761089c85828151811061084e577f4e487b7100000000000000000000000000000000000000000000000000000000600052603260045260246000fd5b602002602001015185838151811061088f577f4e487b7100000000000000000000000000000000000000000000000000000000600052603260045260246000fd5b602002602001015161045b565b8282815181106108d5577f4e487b7100000000000000000000000000000000000000000000000000000000600052603260045260246000fd5b602002602001018181525050806108eb90612d9b565b9050610809565b508091505092915050565b60066020528060005260406000206000915090505481565b600460009054906101000a900473ffffffffffffffffffffffffffffffffffffffff1681565b600460009054906101000a900473ffffffffffffffffffffffffffffffffffffffff1673ffffffffffffffffffffffffffffffffffffffff163373ffffffffffffffffffffffffffffffffffffffff16146109cb576040517f08c379a00000000000000000000000000000000000000000000000000000000081526004016109c290612a2e565b60405180910390fd5b600460009054906101000a900473ffffffffffffffffffffffffffffffffffffffff1673ffffffffffffffffffffffffffffffffffffffff166108fc479081150290604051600060405180830381858888f19350505050158015610a33573d6000803e3d6000fd5b50565b8173ffffffffffffffffffffffffffffffffffffffff16610a5561118e565b73ffffffffffffffffffffffffffffffffffffffff161415610aac576040517f08c379a0000000000000000000000000000000000000000000000000000000008152600401610aa3906129ae565b60405180910390fd5b8060016000610ab961118e565b73ffffffffffffffffffffffffffffffffffffffff1673ffffffffffffffffffffffffffffffffffffffff16815260200190815260200160002060008473ffffffffffffffffffffffffffffffffffffffff1673ffffffffffffffffffffffffffffffffffffffff16815260200190815260200160002060006101000a81548160ff0219169083151502179055508173ffffffffffffffffffffffffffffffffffffffff16610b6661118e565b73ffffffffffffffffffffffffffffffffffffffff167f17307eab39ab6107e8899845ad3d59bd9653f200f220920489ca2b5937696c3183604051610bab9190612811565b60405180910390a35050565b60606000339050600060075467ffffffffffffffff811115610c02577f4e487b7100000000000000000000000000000000000000000000000000000000600052604160045260246000fd5b604051908082528060200260200182016040528015610c305781602001602082028036833780820191505090505b50905060005b600754811015610ca057610c4a838261045b565b828281518110610c83577f4e487b7100000000000000000000000000000000000000000000000000000000600052603260045260246000fd5b60200260200101818152505080610c9990612d9b565b9050610c36565b50809250505090565b6509184e72a00081565b6060600060075467ffffffffffffffff811115610cf9577f4e487b7100000000000000000000000000000000000000000000000000000000600052604160045260246000fd5b604051908082528060200260200182016040528015610d2c57816020015b6060815260200190600190039081610d175790505b50905060005b600754811015610d9a57610d4581610606565b828281518110610d7e577f4e487b7100000000000000000000000000000000000000000000000000000000600052603260045260246000fd5b602002602001018190525080610d9390612d9b565b9050610d32565b508091505090565b6000600160008473ffffffffffffffffffffffffffffffffffffffff1673ffffffffffffffffffffffffffffffffffffffff16815260200190815260200160002060008373ffffffffffffffffffffffffffffffffffffffff1673ffffffffffffffffffffffffffffffffffffffff16815260200190815260200160002060009054906101000a900460ff16905092915050565b600033905060003490506509184e72a000811015610e89576040517f08c379a0000000000000000000000000000000000000000000000000000000008152600401610e809061296e565b60405180910390fd5b6007548310610ecd576040517f08c379a0000000000000000000000000000000000000000000000000000000008152600401610ec4906128ce565b60405180910390fd5b60006509184e72a00082610ee19190612de4565b14610f21576040517f08c379a0000000000000000000000000000000000000000000000000000000008152600401610f189061298e565b60405180910390fd5b60006509184e72a00082610f359190612c51565b90506000816006600087815260200190815260200160002054610f589190612bfb565b90506064811115610f9e576040517f08c379a0000000000000000000000000000000000000000000000000000000008152600401610f959061286e565b60405180910390fd5b806006600087815260200190815260200160002081905550610fd1848684604051806020016040528060008152506114f6565b5050505050565b606481565b610fe561118e565b73ffffffffffffffffffffffffffffffffffffffff168573ffffffffffffffffffffffffffffffffffffffff16148061102b575061102a8561102561118e565b610da2565b5b61106a576040517f08c379a0000000000000000000000000000000000000000000000000000000008152600401611061906128ee565b60405180910390fd5b611077858585858561168c565b5050505050565b6005602052806000526040600020600091509050805461109d90612d38565b80601f01602080910402602001604051908101604052809291908181526020018280546110c990612d38565b80156111165780601f106110eb57610100808354040283529160200191611116565b820191906000526020600020905b8154815290600101906020018083116110f957829003601f168201915b505050505081565b60075481565b60007f01ffc9a7000000000000000000000000000000000000000000000000000000007bffffffffffffffffffffffffffffffffffffffffffffffffffffffff1916827bffffffffffffffffffffffffffffffffffffffffffffffffffffffff1916149050919050565b600033905090565b81518351146111da576040517f08c379a00000000000000000000000000000000000000000000000000000000081526004016111d1906129ee565b60405180910390fd5b600073ffffffffffffffffffffffffffffffffffffffff168473ffffffffffffffffffffffffffffffffffffffff16141561124a576040517f08c379a00000000000000000000000000000000000000000000000000000000081526004016112419061290e565b60405180910390fd5b600061125461118e565b905061126481878787878761190e565b60005b84518110156114615760008582815181106112ab577f4e487b7100000000000000000000000000000000000000000000000000000000600052603260045260246000fd5b6020026020010151905060008583815181106112f0577f4e487b7100000000000000000000000000000000000000000000000000000000600052603260045260246000fd5b60200260200101519050600080600084815260200190815260200160002060008b73ffffffffffffffffffffffffffffffffffffffff1673ffffffffffffffffffffffffffffffffffffffff16815260200190815260200160002054905081811015611391576040517f08c379a00000000000000000000000000000000000000000000000000000000081526004016113889061294e565b60405180910390fd5b81810360008085815260200190815260200160002060008c73ffffffffffffffffffffffffffffffffffffffff1673ffffffffffffffffffffffffffffffffffffffff168152602001908152602001600020819055508160008085815260200190815260200160002060008b73ffffffffffffffffffffffffffffffffffffffff1673ffffffffffffffffffffffffffffffffffffffff16815260200190815260200160002060008282546114469190612bfb565b925050819055505050508061145a90612d9b565b9050611267565b508473ffffffffffffffffffffffffffffffffffffffff168673ffffffffffffffffffffffffffffffffffffffff168273ffffffffffffffffffffffffffffffffffffffff167f4a39dc06d4c0dbc64b70af90fd698a233a518aa5d07e595d983b8c0526c8f7fb87876040516114d89291906127da565b60405180910390a46114ee818787878787611916565b505050505050565b600073ffffffffffffffffffffffffffffffffffffffff168473ffffffffffffffffffffffffffffffffffffffff161415611566576040517f08c379a000000000000000000000000000000000000000000000000000000000815260040161155d90612a0e565b60405180910390fd5b600061157061118e565b90506115918160008761158288611afd565b61158b88611afd565b8761190e565b8260008086815260200190815260200160002060008773ffffffffffffffffffffffffffffffffffffffff1673ffffffffffffffffffffffffffffffffffffffff16815260200190815260200160002060008282546115f09190612bfb565b925050819055508473ffffffffffffffffffffffffffffffffffffffff16600073ffffffffffffffffffffffffffffffffffffffff168273ffffffffffffffffffffffffffffffffffffffff167fc3d58168c5ae7397731d063d5bbf3d657854427343f4c083240f7aacaa2d0f62878760405161166e929190612a69565b60405180910390a461168581600087878787611bc3565b5050505050565b600073ffffffffffffffffffffffffffffffffffffffff168473ffffffffffffffffffffffffffffffffffffffff1614156116fc576040517f08c379a00000000000000000000000000000000000000000000000000000000081526004016116f39061290e565b60405180910390fd5b600061170661118e565b905061172681878761171788611afd565b61172088611afd565b8761190e565b600080600086815260200190815260200160002060008873ffffffffffffffffffffffffffffffffffffffff1673ffffffffffffffffffffffffffffffffffffffff168152602001908152602001600020549050838110156117bd576040517f08c379a00000000000000000000000000000000000000000000000000000000081526004016117b49061294e565b60405180910390fd5b83810360008087815260200190815260200160002060008973ffffffffffffffffffffffffffffffffffffffff1673ffffffffffffffffffffffffffffffffffffffff168152602001908152602001600020819055508360008087815260200190815260200160002060008873ffffffffffffffffffffffffffffffffffffffff1673ffffffffffffffffffffffffffffffffffffffff16815260200190815260200160002060008282546118729190612bfb565b925050819055508573ffffffffffffffffffffffffffffffffffffffff168773ffffffffffffffffffffffffffffffffffffffff168373ffffffffffffffffffffffffffffffffffffffff167fc3d58168c5ae7397731d063d5bbf3d657854427343f4c083240f7aacaa2d0f6288886040516118ef929190612a69565b60405180910390a4611905828888888888611bc3565b50505050505050565b505050505050565b6119358473ffffffffffffffffffffffffffffffffffffffff16611daa565b15611af5578373ffffffffffffffffffffffffffffffffffffffff1663bc197c8187878686866040518663ffffffff1660e01b815260040161197b9594939291906126d4565b602060405180830381600087803b15801561199557600080fd5b505af19250505080156119c657506040513d601f19601f820116820180604052508101906119c39190612251565b60015b611a6c576119d2612ed1565b806308c379a01415611a2f57506119e7613369565b806119f25750611a31565b806040517f08c379a0000000000000000000000000000000000000000000000000000000008152600401611a26919061282c565b60405180910390fd5b505b6040517f08c379a0000000000000000000000000000000000000000000000000000000008152600401611a639061284e565b60405180910390fd5b63bc197c8160e01b7bffffffffffffffffffffffffffffffffffffffffffffffffffffffff1916817bffffffffffffffffffffffffffffffffffffffffffffffffffffffff191614611af3576040517f08c379a0000000000000000000000000000000000000000000000000000000008152600401611aea9061288e565b60405180910390fd5b505b505050505050565b60606000600167ffffffffffffffff811115611b42577f4e487b7100000000000000000000000000000000000000000000000000000000600052604160045260246000fd5b604051908082528060200260200182016040528015611b705781602001602082028036833780820191505090505b5090508281600081518110611bae577f4e487b7100000000000000000000000000000000000000000000000000000000600052603260045260246000fd5b60200260200101818152505080915050919050565b611be28473ffffffffffffffffffffffffffffffffffffffff16611daa565b15611da2578373ffffffffffffffffffffffffffffffffffffffff1663f23a6e6187878686866040518663ffffffff1660e01b8152600401611c2895949392919061273c565b602060405180830381600087803b158015611c4257600080fd5b505af1925050508015611c7357506040513d601f19601f82011682018060405250810190611c709190612251565b60015b611d1957611c7f612ed1565b806308c379a01415611cdc5750611c94613369565b80611c9f5750611cde565b806040517f08c379a0000000000000000000000000000000000000000000000000000000008152600401611cd3919061282c565b60405180910390fd5b505b6040517f08c379a0000000000000000000000000000000000000000000000000000000008152600401611d109061284e565b60405180910390fd5b63f23a6e6160e01b7bffffffffffffffffffffffffffffffffffffffffffffffffffffffff1916817bffffffffffffffffffffffffffffffffffffffffffffffffffffffff191614611da0576040517f08c379a0000000000000000000000000000000000000000000000000000000008152600401611d979061288e565b60405180910390fd5b505b505050505050565b600080823b905060008111915050919050565b6000611dd0611dcb84612ab7565b612a92565b90508083825260208201905082856020860282011115611def57600080fd5b60005b85811015611e1f5781611e058882611ed3565b845260208401935060208301925050600181019050611df2565b5050509392505050565b6000611e3c611e3784612ae3565b612a92565b90508083825260208201905082856020860282011115611e5b57600080fd5b60005b85811015611e8b5781611e718882611fa5565b845260208401935060208301925050600181019050611e5e565b5050509392505050565b6000611ea8611ea384612b0f565b612a92565b905082815260208101848484011115611ec057600080fd5b611ecb848285612cf6565b509392505050565b600081359050611ee2816133ff565b92915050565b600082601f830112611ef957600080fd5b8135611f09848260208601611dbd565b91505092915050565b600082601f830112611f2357600080fd5b8135611f33848260208601611e29565b91505092915050565b600081359050611f4b81613416565b92915050565b600081359050611f608161342d565b92915050565b600081519050611f758161342d565b92915050565b600082601f830112611f8c57600080fd5b8135611f9c848260208601611e95565b91505092915050565b600081359050611fb481613444565b92915050565b60008060408385031215611fcd57600080fd5b6000611fdb85828601611ed3565b9250506020611fec85828601611ed3565b9150509250929050565b600080600080600060a0868803121561200e57600080fd5b600061201c88828901611ed3565b955050602061202d88828901611ed3565b945050604086013567ffffffffffffffff81111561204a57600080fd5b61205688828901611f12565b935050606086013567ffffffffffffffff81111561207357600080fd5b61207f88828901611f12565b925050608086013567ffffffffffffffff81111561209c57600080fd5b6120a888828901611f7b565b9150509295509295909350565b600080600080600060a086880312156120cd57600080fd5b60006120db88828901611ed3565b95505060206120ec88828901611ed3565b94505060406120fd88828901611fa5565b935050606061210e88828901611fa5565b925050608086013567ffffffffffffffff81111561212b57600080fd5b61213788828901611f7b565b9150509295509295909350565b6000806040838503121561215757600080fd5b600061216585828601611ed3565b925050602061217685828601611f3c565b9150509250929050565b6000806040838503121561219357600080fd5b60006121a185828601611ed3565b92505060206121b285828601611fa5565b9150509250929050565b600080604083850312156121cf57600080fd5b600083013567ffffffffffffffff8111156121e957600080fd5b6121f585828601611ee8565b925050602083013567ffffffffffffffff81111561221257600080fd5b61221e85828601611f12565b9150509250929050565b60006020828403121561223a57600080fd5b600061224884828501611f51565b91505092915050565b60006020828403121561226357600080fd5b600061227184828501611f66565b91505092915050565b60006020828403121561228c57600080fd5b600061229a84828501611fa5565b91505092915050565b60006122af83836123f9565b905092915050565b60006122c3838361269b565b60208301905092915050565b6122d881612c82565b82525050565b60006122e982612b60565b6122f38185612ba6565b93508360208202850161230585612b40565b8060005b85811015612341578484038952815161232285826122a3565b945061232d83612b8c565b925060208a01995050600181019050612309565b50829750879550505050505092915050565b600061235e82612b6b565b6123688185612bb7565b935061237383612b50565b8060005b838110156123a457815161238b88826122b7565b975061239683612b99565b925050600181019050612377565b5085935050505092915050565b6123ba81612c94565b82525050565b60006123cb82612b76565b6123d58185612bc8565b93506123e5818560208601612d05565b6123ee81612ef3565b840191505092915050565b600061240482612b81565b61240e8185612bd9565b935061241e818560208601612d05565b61242781612ef3565b840191505092915050565b600061243d82612b81565b6124478185612bea565b9350612457818560208601612d05565b61246081612ef3565b840191505092915050565b6000612478603483612bea565b915061248382612f11565b604082019050919050565b600061249b602283612bea565b91506124a682612f60565b604082019050919050565b60006124be602883612bea565b91506124c982612faf565b604082019050919050565b60006124e1602b83612bea565b91506124ec82612ffe565b604082019050919050565b6000612504601b83612bea565b915061250f8261304d565b602082019050919050565b6000612527602983612bea565b915061253282613076565b604082019050919050565b600061254a602583612bea565b9150612555826130c5565b604082019050919050565b600061256d603283612bea565b915061257882613114565b604082019050919050565b6000612590602a83612bea565b915061259b82613163565b604082019050919050565b60006125b3601383612bea565b91506125be826131b2565b602082019050919050565b60006125d6601b83612bea565b91506125e1826131db565b602082019050919050565b60006125f9602983612bea565b915061260482613204565b604082019050919050565b600061261c602983612bea565b915061262782613253565b604082019050919050565b600061263f602883612bea565b915061264a826132a2565b604082019050919050565b6000612662602183612bea565b915061266d826132f1565b604082019050919050565b6000612685601183612bea565b915061269082613340565b602082019050919050565b6126a481612cec565b82525050565b6126b381612cec565b82525050565b60006020820190506126ce60008301846122cf565b92915050565b600060a0820190506126e960008301886122cf565b6126f660208301876122cf565b81810360408301526127088186612353565b9050818103606083015261271c8185612353565b9050818103608083015261273081846123c0565b90509695505050505050565b600060a08201905061275160008301886122cf565b61275e60208301876122cf565b61276b60408301866126aa565b61277860608301856126aa565b818103608083015261278a81846123c0565b90509695505050505050565b600060208201905081810360008301526127b081846122de565b905092915050565b600060208201905081810360008301526127d28184612353565b905092915050565b600060408201905081810360008301526127f48185612353565b905081810360208301526128088184612353565b90509392505050565b600060208201905061282660008301846123b1565b92915050565b600060208201905081810360008301526128468184612432565b905092915050565b600060208201905081810360008301526128678161246b565b9050919050565b600060208201905081810360008301526128878161248e565b9050919050565b600060208201905081810360008301526128a7816124b1565b9050919050565b600060208201905081810360008301526128c7816124d4565b9050919050565b600060208201905081810360008301526128e7816124f7565b9050919050565b600060208201905081810360008301526129078161251a565b9050919050565b600060208201905081810360008301526129278161253d565b9050919050565b6000602082019050818103600083015261294781612560565b9050919050565b6000602082019050818103600083015261296781612583565b9050919050565b60006020820190508181036000830152612987816125a6565b9050919050565b600060208201905081810360008301526129a7816125c9565b9050919050565b600060208201905081810360008301526129c7816125ec565b9050919050565b600060208201905081810360008301526129e78161260f565b9050919050565b60006020820190508181036000830152612a0781612632565b9050919050565b60006020820190508181036000830152612a2781612655565b9050919050565b60006020820190508181036000830152612a4781612678565b9050919050565b6000602082019050612a6360008301846126aa565b92915050565b6000604082019050612a7e60008301856126aa565b612a8b60208301846126aa565b9392505050565b6000612a9c612aad565b9050612aa88282612d6a565b919050565b6000604051905090565b600067ffffffffffffffff821115612ad257612ad1612ea2565b5b602082029050602081019050919050565b600067ffffffffffffffff821115612afe57612afd612ea2565b5b602082029050602081019050919050565b600067ffffffffffffffff821115612b2a57612b29612ea2565b5b612b3382612ef3565b9050602081019050919050565b6000819050602082019050919050565b6000819050602082019050919050565b600081519050919050565b600081519050919050565b600081519050919050565b600081519050919050565b6000602082019050919050565b6000602082019050919050565b600082825260208201905092915050565b600082825260208201905092915050565b600082825260208201905092915050565b600082825260208201905092915050565b600082825260208201905092915050565b6000612c0682612cec565b9150612c1183612cec565b9250827fffffffffffffffffffffffffffffffffffffffffffffffffffffffffffffffff03821115612c4657612c45612e15565b5b828201905092915050565b6000612c5c82612cec565b9150612c6783612cec565b925082612c7757612c76612e44565b5b828204905092915050565b6000612c8d82612ccc565b9050919050565b60008115159050919050565b60007fffffffff0000000000000000000000000000000000000000000000000000000082169050919050565b600073ffffffffffffffffffffffffffffffffffffffff82169050919050565b6000819050919050565b82818337600083830152505050565b60005b83811015612d23578082015181840152602081019050612d08565b83811115612d32576000848401525b50505050565b60006002820490506001821680612d5057607f821691505b60208210811415612d6457612d63612e73565b5b50919050565b612d7382612ef3565b810181811067ffffffffffffffff82111715612d9257612d91612ea2565b5b80604052505050565b6000612da682612cec565b91507fffffffffffffffffffffffffffffffffffffffffffffffffffffffffffffffff821415612dd957612dd8612e15565b5b600182019050919050565b6000612def82612cec565b9150612dfa83612cec565b925082612e0a57612e09612e44565b5b828206905092915050565b7f4e487b7100000000000000000000000000000000000000000000000000000000600052601160045260246000fd5b7f4e487b7100000000000000000000000000000000000000000000000000000000600052601260045260246000fd5b7f4e487b7100000000000000000000000000000000000000000000000000000000600052602260045260246000fd5b7f4e487b7100000000000000000000000000000000000000000000000000000000600052604160045260246000fd5b600060033d1115612ef05760046000803e612eed600051612f04565b90505b90565b6000601f19601f8301169050919050565b60008160e01c9050919050565b7f455243313135353a207472616e7366657220746f206e6f6e204552433131353560008201527f526563656976657220696d706c656d656e746572000000000000000000000000602082015250565b7f54686973207061696e74696e67206861732072656163686564206d6178206d6960008201527f6e74000000000000000000000000000000000000000000000000000000000000602082015250565b7f455243313135353a204552433131353552656365697665722072656a6563746560008201527f6420746f6b656e73000000000000000000000000000000000000000000000000602082015250565b7f455243313135353a2062616c616e636520717565727920666f7220746865207a60008201527f65726f2061646472657373000000000000000000000000000000000000000000602082015250565b7f5061696e74696e67204944206973206f7574206f662072616e67650000000000600082015250565b7f455243313135353a2063616c6c6572206973206e6f74206f776e6572206e6f7260008201527f20617070726f7665640000000000000000000000000000000000000000000000602082015250565b7f455243313135353a207472616e7366657220746f20746865207a65726f20616460008201527f6472657373000000000000000000000000000000000000000000000000000000602082015250565b7f455243313135353a207472616e736665722063616c6c6572206973206e6f742060008201527f6f776e6572206e6f7220617070726f7665640000000000000000000000000000602082015250565b7f455243313135353a20696e73756666696369656e742062616c616e636520666f60008201527f72207472616e7366657200000000000000000000000000000000000000000000602082015250565b7f4e6f7420656e6f756768206574682073656e7400000000000000000000000000600082015250565b7f4e6f7420636f72726563742065746820616d6f756e742073656e740000000000600082015250565b7f455243313135353a2073657474696e6720617070726f76616c2073746174757360008201527f20666f722073656c660000000000000000000000000000000000000000000000602082015250565b7f455243313135353a206163636f756e747320616e6420696473206c656e67746860008201527f206d69736d617463680000000000000000000000000000000000000000000000602082015250565b7f455243313135353a2069647320616e6420616d6f756e7473206c656e6774682060008201527f6d69736d61746368000000000000000000000000000000000000000000000000602082015250565b7f455243313135353a206d696e7420746f20746865207a65726f2061646472657360008201527f7300000000000000000000000000000000000000000000000000000000000000602082015250565b7f596f7520617265206e6f74206f776e6572000000000000000000000000000000600082015250565b600060443d1015613379576133fc565b613381612aad565b60043d036004823e80513d602482011167ffffffffffffffff821117156133a95750506133fc565b808201805167ffffffffffffffff8111156133c757505050506133fc565b80602083010160043d0385018111156133e45750505050506133fc565b6133f382602001850186612d6a565b82955050505050505b90565b61340881612c82565b811461341357600080fd5b50565b61341f81612c94565b811461342a57600080fd5b50565b61343681612ca0565b811461344157600080fd5b50565b61344d81612cec565b811461345857600080fd5b5056fea2646970667358221220cea922ea4409a17006351ac01003170ba8504596d44c3c279a9f10a98c46a31264736f6c63430008010033",
  "immutableReferences": {},
  "source": "pragma solidity ^0.8.0;\r\n\r\nimport \"@openzeppelin/contracts/token/ERC1155/ERC1155.sol\";\r\nimport \"@openzeppelin/contracts/utils/Counters.sol\";\r\n\r\ncontract ArtToken is ERC1155 {\r\n    using Counters for Counters.Counter;\r\n    Counters.Counter private idCounter;\r\n    address public owner;\r\n\r\n    mapping(uint256 => string) public tokenUriMapping;\r\n    mapping(uint256 => uint256) public paintingsCount;\r\n\r\n    uint256 public totalPaintings = 0;\r\n\r\n\r\n    uint256 public constant UNIT_PRICE = 10000000000000;\r\n    uint256 public constant MAX_MINT = 100;\r\n\r\n    modifier onlyOwner(){\r\n        require(msg.sender == owner, \"You are not owner\");\r\n        _;\r\n    }\r\n\r\n    constructor(uint256 _totalPaintings, string[] memory uris) ERC1155(\"\") {\r\n        require(_totalPaintings== uris.length, \"uris length and the total paintings do not match\");\r\n        totalPaintings = _totalPaintings;\r\n        owner = msg.sender;\r\n        for (uint256 i = 0; i < _totalPaintings; ++i) {\r\n            setUri(i, uris[i]);\r\n        }\r\n    }\r\n\r\n    function setUri(uint256 tokenId, string memory newTokenUri) private {\r\n        tokenUriMapping[tokenId] = newTokenUri;\r\n    }\r\n\r\n    function uri(uint256 tokenId) public view override returns (string memory) {\r\n        return tokenUriMapping[tokenId];\r\n    }\r\n\r\n    function getUris() public view returns (string[] memory){\r\n        string[] memory uris = new string[](totalPaintings);\r\n        for(uint256 i=0; i<totalPaintings; ++i){\r\n            uris[i] = uri(i);\r\n        }\r\n        return uris;\r\n    }\r\n\r\n    \r\n\r\n    function mintArtToken(uint256 pictureId) payable public\r\n    {\r\n        address sender = msg.sender;\r\n        uint256 payment = msg.value;\r\n        require(payment >= UNIT_PRICE, \"Not enough eth sent\");\r\n        require(pictureId < totalPaintings, \"Painting ID is out of range\");\r\n        require(payment % UNIT_PRICE==0, \"Not correct eth amount sent\");\r\n        uint256 mintAmount = payment / UNIT_PRICE;\r\n        uint256 newPaintingCount = paintingsCount[pictureId] + mintAmount;\r\n        require(newPaintingCount <= MAX_MINT, \"This painting has reached max mint\");\r\n        paintingsCount[pictureId] = newPaintingCount;\r\n        _mint(\r\n            sender,\r\n            pictureId,\r\n            mintAmount,\r\n            \"\"\r\n        );\r\n    }\r\n\r\n    function getMyBalances() public view returns( uint256[] memory) {\r\n        address sender = msg.sender;\r\n        uint256[] memory balances = new uint256[](totalPaintings);\r\n        for(uint256 i=0; i<totalPaintings; ++i){\r\n            balances[i] = balanceOf(sender, i);\r\n        }\r\n        return balances;\r\n    }\r\n\r\n    function withdrawEth() payable public onlyOwner {\r\n        payable(owner).transfer(address(this).balance);\r\n    } \r\n\r\n\r\n\r\n}",
  "sourcePath": "C:\\Users\\Caleb\\Desktop\\hackthon\\arts\\contracts\\ArtToken.sol",
  "compiler": {
    "name": "solc",
    "version": "0.8.1+commit.df193b15.Emscripten.clang"
  },
  "schemaVersion": "3.4.2",
  "updatedAt": "2021-11-07T16:41:31.166Z",
  "devdoc": {
    "kind": "dev",
    "methods": {
      "balanceOf(address,uint256)": {
        "details": "See {IERC1155-balanceOf}. Requirements: - `account` cannot be the zero address."
      },
      "balanceOfBatch(address[],uint256[])": {
        "details": "See {IERC1155-balanceOfBatch}. Requirements: - `accounts` and `ids` must have the same length."
      },
      "isApprovedForAll(address,address)": {
        "details": "See {IERC1155-isApprovedForAll}."
      },
      "safeBatchTransferFrom(address,address,uint256[],uint256[],bytes)": {
        "details": "See {IERC1155-safeBatchTransferFrom}."
      },
      "safeTransferFrom(address,address,uint256,uint256,bytes)": {
        "details": "See {IERC1155-safeTransferFrom}."
      },
      "setApprovalForAll(address,bool)": {
        "details": "See {IERC1155-setApprovalForAll}."
      },
      "supportsInterface(bytes4)": {
        "details": "See {IERC165-supportsInterface}."
      }
    },
    "version": 1
  },
  "userdoc": {
    "kind": "user",
    "methods": {},
    "version": 1
  }
}